1101497   135975391230201000031397HUF                                                                          315221500          457593000                                                                                                                                                                                                                                                                                                                                                                                                                                                                                                                                                                                                                                                                                                                                                                                                                          
12301                  -000000002000000HUF                                                                                                                                                                                                                                                                                                                          Forint átutalás                    I#18992#LN5SA2434794               Címzett:Juh sz ValÚria             Számlaszám:162001511853072200000000                                                                                                                                            Juh sz ValÚria                                                                                                                              162001511853072200000000                                                                                                       00000000200000020171220       
12699                  -000000000021000HUF                                                                                                                                                                                                                                                                                                                          Banki jutalék                                                                                                                                                                                                                                                                                                                                                                                                                                                                                                                                                      00000000002100020171220       
12301                  -000000007500000HUF                                                                                                                                                                                                                                                                                                                          Forint átutalás                    I#18984#MD5SA4684384               Címzett:Dr. Moln r Emese           Számlaszám:162001201853439300000000                                                                                                                                            Dr. Moln r Emese                                                                                                                            162001201853439300000000                                                                                                       00000000750000020171220       
12699                  -000000000037500HUF                                                                                                                                                                                                                                                                                                                          Banki jutalék                                                                                                                                                                                                                                                                                                                                                                                                                                                                                                                                                      00000000003750020171220       
12301                  -000000010500000HUF                                                                                                                                                                                                                                                                                                                          Forint átutalás                    I#18929#NJ6SA4341523               Címzett:Gyenes PÚter               Számlaszám:117730301198826500000000                                                                                                                                            Gyenes PÚter                                                                                                                                117730301198826500000000                                                                                                       00000001050000020171220       
12699                  -000000000046500HUF                                                                                                                                                                                                                                                                                                                          Banki jutalék                                                                                                                                                                                                                                                                                                                                                                                                                                                                                                                                                      00000000004650020171220       
12301                  -000000037717700HUF                                                                                                                                                                                                                                                                                                                          Forint átutalás                    I#18917#710302022242               Címzett:ELM  H l zati Kft. 33000443Számlaszám:107000244439620052000001                                                                                                                                            ELM  H l zati Kft. 33000443                                                                                                                 107000244439620052000001                                                                                                       00000003771770020171220       
12699                  -000000000128200HUF                                                                                                                                                                                                                                                                                                                          Banki jutalék                                                                                                                                                                                                                                                                                                                                                                                                                                                                                                                                                      00000000012820020171220       
12301                  -000000002363700HUF                                                                                                                                                                                                                                                                                                                          Forint átutalás                    I#18904#VI3432/2017                Címzett:Viacom                     Számlaszám:117130052040137900000000                                                                                                                                            Viacom                                                                                                                                      117130052040137900000000                                                                                                       00000000236370020171220       
12699                  -000000000022100HUF                                                                                                                                                                                                                                                                                                                          Banki jutalék                                                                                                                                                                                                                                                                                                                                                                                                                                                                                                                                                      00000000002210020171220       
12301                  -000000007961300HUF                                                                                                                                                                                                                                                                                                                          Forint átutalás                    I#18896#840003174472               Címzett:ELM - M SZ2602201643PacsirtSzámlaszám:137000160748301100000000                                                                                                                                            ELM - M SZ2602201643Pacsirt                                                                                                                 137000160748301100000000                                                                                                       00000000796130020171220       
12699                  -000000000038900HUF                                                                                                                                                                                                                                                                                                                          Banki jutalék                                                                                                                                                                                                                                                                                                                                                                                                                                                                                                                                                      00000000003890020171220       
12301                  -000000089758800HUF                                                                                                                                                                                                                                                                                                                          Forint átutalás                    I#18794#5120170018028355           Címzett:T Csoport (fszla: 11866151)Számlaszám:131000070250681003663484                                                                                                                                            T Csoport (fszla: 11866151)                                                                                                                 131000070250681003663484                                                                                                       00000008975880020171220       
12699                  -000000000284300HUF                                                                                                                                                                                                                                                                                                                          Banki jutalék                                                                                                                                                                                                                                                                                                                                                                                                                                                                                                                                                      00000000028430020171220       
12301                  -000000001329200HUF                                                                                                                                                                                                                                                                                                                          Forint átutalás                    I#18487#5374005068780010           Címzett:T csoport  Vasv ri net     Számlaszám:131000070250681002693488                                                                                                                                            T csoport  Vasv ri net                                                                                                                      131000070250681002693488                                                                                                       00000000132920020171220       
12699                  -000000000019000HUF                                                                                                                                                                                                                                                                                                                          Banki jutalék                                                                                                                                                                                                                                                                                                                                                                                                                                                                                                                                                      00000000001900020171220       
12301                  -000000000254000HUF                                                                                                                                                                                                                                                                                                                          Forint átutalás                    I#17937#2017 NOVEMBER              Címzett:T rsash z, K roly krt. 20. Számlaszám:117050082018661200000000                                                                                                                                            T rsash z, K roly krt. 20.                                                                                                                  117050082018661200000000                                                                                                       00000000025400020171220       
12699                  -000000000015800HUF                                                                                                                                                                                                                                                                                                                          Banki jutalék                                                                                                                                                                                                                                                                                                                                                                                                                                                                                                                                                      00000000001580020171220       
12301                  -000000001284000HUF                                                                                                                                                                                                                                                                                                                          Forint átutalás                    I#17726#100176581313               Címzett:G zmûvek 5000099533 Kkrt. 1Számlaszám:107000240256820952100008                                                                                                                                            G zmûvek 5000099533 Kkrt. 1                                                                                                                 107000240256820952100008                                                                                                       00000000128400020171220       
12699                  -000000000018900HUF                                                                                                                                                                                                                                                                                                                          Banki jutalék                                                                                                                                                                                                                                                                                                                                                                                                                                                                                                                                                      00000000001890020171220       
12301                  -000000004034000HUF                                                                                                                                                                                                                                                                                                                          Forint átutalás                    I#17723#100176582372               Címzett:G zmûvek 5000228151 Kkrt. 2Számlaszám:107000240256820952100008                                                                                                                                            G zmûvek 5000228151 Kkrt. 2                                                                                                                 107000240256820952100008                                                                                                       00000000403400020171220       
12699                  -000000000027100HUF                                                                                                                                                                                                                                                                                                                          Banki jutalék                                                                                                                                                                                                                                                                                                                                                                                                                                                                                                                                                      00000000002710020171220       
12301                   000000000300000HUF                                                                                                                                            NAGY FERENC ES NEJE                                                                                                                         117734490026170000000000          Forint átutalás                                                       Küldõ:NAGY FERENC ES NEJE          Számlaszám:117734490026170000000000                                                                                                                                                                                                                                                                                                                                                                    00000000030000020171220                                                          
12202                   000000000500000HUF                                                                                                                                            PEK 2017.12.19. 1 DB                                                                                                                                                          Posta csekk                        PEK 2017.12.19. 1 DB                                                                                                                                                                                                                                                                                                                                                                                                                                                         00000000050000020171220                                                          
12699                  -000000000020000HUF                                                                                                                                                                                                                                                                                                                          Banki jutalék                                                                                                                                                                                                                                                                                                                                                                                                                                                                                                                                                      00000000002000020171220       
12201                   000000072000000HUF                                                                                                                                            TETT ÉS VÉDELEM ALAPÍTVÁNY                                                                                                                  135975391230201000057157          Átvezetés bankon belül             Küldõ:1230201000057157(TETT ÉS VÉDEbérleti díj                                                                                                                                                                                                                                                                                                                                                                                                                               00000007200000020171220                                                          
12601                  -000000015000000HUF                                                                                                                                                                                                                                                                                                                          Átvezetés bankon belül             kölcsön                            Számlaszám:1330201000004578(Budapes                                                                                                                                                                               Budapesti Ortodox Rabbinátus Egy                                                                                                            135204051330201000004578                                                                                                       00000001500000020171220       
12699                  -000000000046500HUF                                                                                                                                                                                                                                                                                                                          Banki jutalék                                                                                                                                                                                                                                                                                                                                                                                                                                                                                                                                                      00000000004650020171220       
12201                   000000250000000HUF                                                                                                                                            OLOESZ Kft.                                                                                                                                 135204051330201000004561          Átvezetés bankon belül             Küldõ:1330201000004561(OLOESZ Kft.)kölcsön                                                                                                                                                                                                                                                                                                                                                                                                                                   00000025000000020171220                                                          
13                                                                                                                                                                                                                                                                                                                                                                                                                                                                                                                                                                                                                                                                                                                                                                                                                                                                                                                                                                   
1100006   135204051330201000005414HUF                                                                         9339778900         9021663900                                                                                                                                                                                                                                                                                                                                                                                                                                                                                                                                                                                                                                                                                                                                                                                                                          
12301                  -000000317500000HUF                                                                                                                                                                                                                                                                                                                          Forint átutalás                    I#19037#AN2LA0379585               Címzett:rk d Kft.                  Számlaszám:104040270290088900000000                                                                                                                                            rk d Kft.                                                                                                                                   104040270290088900000000                                                                                                       00000031750000020171220       
12699                  -000000000615000HUF                                                                                                                                                                                                                                                                                                                          Banki jutalék                                                                                                                                                                                                                                                                                                                                                                                                                                                                                                                                                      00000000061500020171220       
13                                                                                                                                                                                                                                                                                                                                                                                                                                                                                                                                                                                                                                                                                                                                                                                                                                                                                                                                                                   
14                                                                                                                                                                                                                                                                                                                                                                                                                                                                                                                                                                                                                                                                                                                                                                                                                                                                                                                                                                   
