11245     1210001110032684        HUFEgységes Magyarorsz.12100011GRÁNIT Bank Zrt. Köz2017121820171218          251045200          502640600Egységes Magyarorsz. Izraelita Hitközség          Károly krt. 20. 1052 Budapest                                                                                                                                                                                                                                                                                                                                                                                                                                                                                                                                                                                                                                                                                                                                           
12158   25548458        000000000500000HUF                                                                                                                                            BENCZE JÁNOS DR                                                                                                                             103000025031684549010015          BEF. AZON:XXXXXADOMÁNY                                                                                                                                                                                                                                                                  ÚJ EMIH 1052 KÁROLY KRT 20                                                                                                                  121000111003268400000000          XXXXX         121000111003268400000000    00000000050000020171218103000025031684549010015                                  
12158   25549253        000000000500000HUF                                                                                                                                            DR. KORDA JÁNOS GYÖRGY                                                                                                                      116000060000000026684541          adomány                                                                                                                                                                                                                                                                                 Egységes Magyarországi Izraelita                                                                                                            121000111003268400000000          NOTPRO        121000111003268400000000    00000000050000020171218116000060000000026684541                                  
12158   25557589        000000000100000HUF                                                                                                                                            ÁRVAI JÁNOS ÉS NEJE LANE3904                                                                                                                117733914030597600000000          ÁRVAI JÁNOSNÉ 3360 HEVES ER     KEL FERENC Ú. 3/D.I.E.4. ADO                                                                                                                                                                                                                            EMIH Budapest                                                                                                                               121000111003268400000000          NOTPRO        121000111003268400000000    00000000010000020171218117733914030597600000000                                  
12212   25563441        000000500000000HUF                                                                                                                                            Oloesz Keresk. És Szolg. Kft                                                                                                                121000111021387000000000          kölcsön                                                                                                                                                                                                                                                                                 EMIH                                                                                                                                        121000111003268400000000          NOTPRO        121000111003268400000000    00000050000000020171218121000111021387000000000                                  
12165   25563479       -000000065104600HUF                                                                                                                                            Egységes Magyarorsz. Izraelita Hitközség                                                                                                    121000111003268400000000          elõlegbekérõ alapján                                                                                                                                                                                                                                                                    Art Média Kft                                                                                                                               101041055642124600000008          NOTPRO        101041055642124600000008                           121000111003268400000000    00000006510460020171218       
12211   25563482       -000000200000000HUF                                                                                                                                            Egységes Magyarorsz. Izraelita Hitközség                                                                                                    121000111003268400000000          kölcsön                                                                                                                                                                                                                                                                                 CHABAD Alapítvány                                                                                                                           121000111012522100000000          NOTPRO        121000111012522100000000                           121000111003268400000000    00000020000000020171218       
121     25566925       -000000200000000HUF                                                                                                                                                                                                                                                                                        1210001110032684                  83279                                                                                                                                                                                                                                                                                                                                                                                                                               1210001110032684                                1210001110032684        HUF                        1210001110032684        HUF 00000020000000020171218       
12108   25568674        000000000100000HUF                                                                                                                                                                                                                                                                                        1210000418000160                                                                                                                                                                                                                                                                                                                                                                                                                                                      1210001110032684                                1210001110032684        HUF 000000000100000201712181210000418000160                                          
12108   25568676        000000000300000HUF                                                                                                                                                                                                                                                                                        1210000418000160                                                                                                                                                                                                                                                                                                                                                                                                                                                      1210001110032684                                1210001110032684        HUF 000000000300000201712181210000418000160                                          
12108   25568678        000000000200000HUF                                                                                                                                                                                                                                                                                        1210000418000160                                                                                                                                                                                                                                                                                                                                                                                                                                                      1210001110032684                                1210001110032684        HUF 000000000200000201712181210000418000160                                          
12212   25570113        000004675000000HUF                                                                                                                                            Maimonidész Oktatási Központ                                                                                                                121000111033510700000000          kölcsön                                                                                                                                                                                                                                                                                 EMIH                                                                                                                                        121000111003268400000000          NOTPRO        121000111003268400000000    00000467500000020171218121000111033510700000000                                  
12165   25570410       -000000280000000HUF                                                                                                                                            Egységes Magyarorsz. Izraelita Hitközség                                                                                                    121000111003268400000000          kölcsön                                                                                                                                                                                                                                                                                 Tett és Védelem Alapítvány                                                                                                                  135975391230201000057157          NOTPRO        135975391230201000057157                           121000111003268400000000    00000028000000020171218       
12211   25570411       -000002500000000HUF                                                                                                                                            Egységes Magyarorsz. Izraelita Hitközség                                                                                                    121000111003268400000000          kölcsön                                                                                                                                                                                                                                                                                 CHABAD Alapítvány                                                                                                                           121000111012522100000000          NOTPRO        121000111012522100000000                           121000111003268400000000    00000250000000020171218       
12211   25570413       -000001680000000HUF                                                                                                                                            Egységes Magyarorsz. Izraelita Hitközség                                                                                                    121000111003268400000000          kölcsön                                                                                                                                                                                                                                                                                 Olajág Otthonok                                                                                                                             121000111003778200000000          NOTPRO        121000111003778200000000                           121000111003268400000000    00000168000000020171218       
13                                                                                                                                                                                                                                                                                                                                                                                                                                                                                                                                                                                                                                                                                                                                                                                                                                                                                                                                                                   
14                                                                                                                                                                                                                                                                                                                                                                                                                                                                                                                                                                                                                                                                                                                                                                                                                                                                                                                                                                   
