1101496   135975391230201000031397HUF                                                                            5859000          315221500                                                                                                                                                                                                                                                                                                                                                                                                                                                                                                                                                                                                                                                                                                                                                                                                                          
12201                   000000500000000HUF                                                                                                                                            OLOESZ Kft.                                                                                                                                 135204051330201000004561          Átvezetés bankon belül             Küldõ:1330201000004561(OLOESZ Kft.)kölcsön                                                                                                                                                                                                                                                                                                                                                                                                                                   00000050000000020171219                                                          
12601                  -000000120000000HUF                                                                                                                                                                                                                                                                                                                          Átvezetés bankon belül             kölcsön                            Számlaszám:1330201000003395(CEDEK)                                                                                                                                                                                CEDEK                                                                                                                                       135204051330201000003395                                                                                                       00000012000000020171219       
12699                  -000000000361500HUF                                                                                                                                                                                                                                                                                                                          Banki jutalék                                                                                                                                                                                                                                                                                                                                                                                                                                                                                                                                                      00000000036150020171219       
12601                  -000000060000000HUF                                                                                                                                                                                                                                                                                                                          Átvezetés bankon belül             kölcsön                            Számlaszám:1330201000004932(EMIH Ób                                                                                                                                                                               EMIH Óbudai Hitközség                                                                                                                       135204051330201000004932                                                                                                       00000006000000020171219       
12699                  -000000000181500HUF                                                                                                                                                                                                                                                                                                                          Banki jutalék                                                                                                                                                                                                                                                                                                                                                                                                                                                                                                                                                      00000000018150020171219       
12201                   000000020000000HUF                                                                                                                                            Budapesti Ortodox Rabbinátus Egy                                                                                                            135204051330201000004578          Átvezetés bankon belül             Küldõ:1330201000004578(Budapesti OrI#114#VL1LA0412862                                                                                                                                                                                                                                                                                                                                                                                                                        00000002000000020171219                                                          
12601                  -000000010000000HUF                                                                                                                                                                                                                                                                                                                          Átvezetés bankon belül             kölcsön                            Számlaszám:1230201000031366(CHABAD                                                                                                                                                                                CHABAD LUBAVITS ALAPÍTVÁNY                                                                                                                  135975391230201000031366                                                                                                       00000001000000020171219       
12699                  -000000000031500HUF                                                                                                                                                                                                                                                                                                                          Banki jutalék                                                                                                                                                                                                                                                                                                                                                                                                                                                                                                                                                      00000000003150020171219       
12601                  -000000005000000HUF                                                                                                                                                                                                                                                                                                                          Átvezetés bankon belül             adomány                            Számlaszám:1330201000003876(EMIH Bu                                                                                                                                                                               EMIH Budavári Hitközség                                                                                                                     135204051330201000003876                                                                                                       00000000500000020171219       
12699                  -000000000016500HUF                                                                                                                                                                                                                                                                                                                          Banki jutalék                                                                                                                                                                                                                                                                                                                                                                                                                                                                                                                                                      00000000001650020171219       
12601                  -000000015000000HUF                                                                                                                                                                                                                                                                                                                          Átvezetés bankon belül             kölcsön                            Számlaszám:1330201000003649(CEDEK A                                                                                                                                                                               CEDEK Alapítvány                                                                                                                            135204051330201000003649                                                                                                       00000001500000020171219       
12699                  -000000000046500HUF                                                                                                                                                                                                                                                                                                                          Banki jutalék                                                                                                                                                                                                                                                                                                                                                                                                                                                                                                                                                      00000000004650020171219       
13                                                                                                                                                                                                                                                                                                                                                                                                                                                                                                                                                                                                                                                                                                                                                                                                                                                                                                                                                                   
14                                                                                                                                                                                                                                                                                                                                                                                                                                                                                                                                                                                                                                                                                                                                                                                                                                                                                                                                                                   
