11246     1210001110032684        HUFEgységes Magyarorsz.12100011GRÁNIT Bank Zrt. Köz2017121920171219          502640600          175490600Egységes Magyarorsz. Izraelita Hitközség          Károly krt. 20. 1052 Budapest                                                                                                                                                                                                                                                                                                                                                                                                                                                                                                                                                                                                                                                                                                                                           
12211   25580356       -000000190000000HUF                                                                                                                                            Egységes Magyarorsz. Izraelita Hitközség                                                                                                    121000111003268400000000          kölcsön                                                                                                                                                                                                                                                                                 CHABAD Alapítvány                                                                                                                           121000111012522100000000          NOTPRO        121000111012522100000000                           121000111003268400000000    00000019000000020171219       
121     25582060       -000000200000000HUF                                                                                                                                                                                                                                                                                        1210001110032684                  83281                                                                                                                                                                                                                                                                                                                                                                                                                               1210001110032684                                1210001110032684        HUF                        1210001110032684        HUF 00000020000000020171219       
12211   25588093       -000000010000000HUF                                                                                                                                            Egységes Magyarorsz. Izraelita Hitközség                                                                                                    121000111003268400000000          kölcsön                                                                                                                                                                                                                                                                                 Zsidó Tudományok Szabadegyeteme                                                                                                             121000111017840100000000          NOTPRO        121000111017840100000000                           121000111003268400000000    00000001000000020171219       
12108   25588366        000000000300000HUF                                                                                                                                                                                                                                                                                        1210000418000160                                                                                                                                                                                                                                                                                                                                                                                                                                                      1210001110032684                                1210001110032684        HUF 000000000300000201712191210000418000160                                          
12108   25588368        000000000050000HUF                                                                                                                                                                                                                                                                                        1210000418000160                                                                                                                                                                                                                                                                                                                                                                                                                                                      1210001110032684                                1210001110032684        HUF 000000000050000201712191210000418000160                                          
12108   25588370        000000000050000HUF                                                                                                                                                                                                                                                                                        1210000418000160                                                                                                                                                                                                                                                                                                                                                                                                                                                      1210001110032684                                1210001110032684        HUF 000000000050000201712191210000418000160                                          
12108   25588372        000000000300000HUF                                                                                                                                                                                                                                                                                        1210000418000160                                                                                                                                                                                                                                                                                                                                                                                                                                                      1210001110032684                                1210001110032684        HUF 000000000300000201712191210000418000160                                          
12108   25588374        000000000500000HUF                                                                                                                                                                                                                                                                                        1210000418000160                                                                                                                                                                                                                                                                                                                                                                                                                                                      1210001110032684                                1210001110032684        HUF 000000000500000201712191210000418000160                                          
12108   25588376        000000000150000HUF                                                                                                                                                                                                                                                                                        1210000418000160                                                                                                                                                                                                                                                                                                                                                                                                                                                      1210001110032684                                1210001110032684        HUF 000000000150000201712191210000418000160                                          
12108   25588378        000000000100000HUF                                                                                                                                                                                                                                                                                        1210000418000160                                                                                                                                                                                                                                                                                                                                                                                                                                                      1210001110032684                                1210001110032684        HUF 000000000100000201712191210000418000160                                          
12108   25588380        000000000100000HUF                                                                                                                                                                                                                                                                                        1210000418000160                                                                                                                                                                                                                                                                                                                                                                                                                                                      1210001110032684                                1210001110032684        HUF 000000000100000201712191210000418000160                                          
12108   25588382        000000000400000HUF                                                                                                                                                                                                                                                                                        1210000418000160                                                                                                                                                                                                                                                                                                                                                                                                                                                      1210001110032684                                1210001110032684        HUF 000000000400000201712191210000418000160                                          
12108   25588384        000000001000000HUF                                                                                                                                                                                                                                                                                        1210000418000160                                                                                                                                                                                                                                                                                                                                                                                                                                                      1210001110032684                                1210001110032684        HUF 000000001000000201712191210000418000160                                          
12108   25588503        000000000300000HUF                                                                                                                                                                                                                                                                                        1210000418000160                                                                                                                                                                                                                                                                                                                                                                                                                                                      1210001110032684                                1210001110032684        HUF 000000000300000201712191210000418000160                                          
12108   25588505        000000000050000HUF                                                                                                                                                                                                                                                                                        1210000418000160                                                                                                                                                                                                                                                                                                                                                                                                                                                      1210001110032684                                1210001110032684        HUF 000000000050000201712191210000418000160                                          
12108   25588507        000000000500000HUF                                                                                                                                                                                                                                                                                        1210000418000160                                                                                                                                                                                                                                                                                                                                                                                                                                                      1210001110032684                                1210001110032684        HUF 000000000500000201712191210000418000160                                          
12108   25588509        000000000200000HUF                                                                                                                                                                                                                                                                                        1210000418000160                                                                                                                                                                                                                                                                                                                                                                                                                                                      1210001110032684                                1210001110032684        HUF 000000000200000201712191210000418000160                                          
12108   25588511        000000000600000HUF                                                                                                                                                                                                                                                                                        1210000418000160                                                                                                                                                                                                                                                                                                                                                                                                                                                      1210001110032684                                1210001110032684        HUF 000000000600000201712191210000418000160                                          
12212   25592198        000000350000000HUF                                                                                                                                            Oloesz Keresk. És Szolg. Kft                                                                                                                121000111021387000000000          kölcsön                                                                                                                                                                                                                                                                                 EMIH                                                                                                                                        121000111003268400000000          NOTPRO        121000111003268400000000    00000035000000020171219121000111021387000000000                                  
12211   25592325       -000000410000000HUF                                                                                                                                            Egységes Magyarorsz. Izraelita Hitközség                                                                                                    121000111003268400000000          kölcsön                                                                                                                                                                                                                                                                                 EMIH Budapesti Hitközség                                                                                                                    121000111017278000000000          NOTPRO        121000111017278000000000                           121000111003268400000000    00000041000000020171219       
12212   25597563        000000200000000HUF                                                                                                                                            Oloesz Keresk. És Szolg. Kft                                                                                                                121000111021387000000000          kölcsön                                                                                                                                                                                                                                                                                 EMIH                                                                                                                                        121000111003268400000000          NOTPRO        121000111003268400000000    00000020000000020171219121000111021387000000000                                  
12165   25597566       -000000072000000HUF                                                                                                                                            Egységes Magyarorsz. Izraelita Hitközség                                                                                                    121000111003268400000000          kölcsön                                                                                                                                                                                                                                                                                 Tett és Védelem Alapítvány                                                                                                                  135975391230201000057157          NOTPRO        135975391230201000057157                           121000111003268400000000    00000007200000020171219       
12158   25597907        000000000250000HUF                                                                                                                                            TORONTÁLI TIBOR                                                                                                                             117732120020217800000000          EB Adomány!                                                                                                                                                                                                                                                                             EMIH 1052 Bp.Károly Krt.20.                                                                                                                 121000111003268400000000          NOTPRO        121000111003268400000000    00000000025000020171219117732120020217800000000                                  
13                                                                                                                                                                                                                                                                                                                                                                                                                                                                                                                                                                                                                                                                                                                                                                                                                                                                                                                                                                   
14                                                                                                                                                                                                                                                                                                                                                                                                                                                                                                                                                                                                                                                                                                                                                                                                                                                                                                                                                                   
