11247     1210001110032684        HUFEgységes Magyarorsz.12100011GRÁNIT Bank Zrt. Köz2017122020171220          175490600          353889900Egységes Magyarorsz. Izraelita Hitközség          Károly krt. 20. 1052 Budapest                                                                                                                                                                                                                                                                                                                                                                                                                                                                                                                                                                                                                                                                                                                                           
12211   25610027       -000000038100000HUF                                                                                                                                                                                                                                                                                        1210001110032684                  VL1SA8573766                    I#18913#                                                                                                                                                                                                                                                Shomer Security Kft.                                                                                                                        1210001110214046                                1210001110214046                                   1210001110032684        HUF 00000003810000020171220       
12165   25610030       -000000002500000HUF                                                                                                                                            Egységes Magyarorsz. Izraelita Hitközség folyószám                                                                                          121000111003268400000000          E-2017-25 I#18903#                                                                                                                                                                                                                                                                      Balog D niel                                                                                                                                107007327037266351100005          NOTPRO        107007327037266351100005                           121000111003268400000000    00000000250000020171220       
12165   25610031       -000000001430700HUF                                                                                                                                            Egységes Magyarorsz. Izraelita Hitközség folyószám                                                                                          121000111003268400000000          0284923 I#7316#                                                                                                                                                                                                                                                                         Allianz Biztos t                                                                                                                            120010080013205400100004          NOTPRO        120010080013205400100004                           121000111003268400000000    00000000143070020171220       
12211   25611376       -000000040000000HUF                                                                                                                                            Egységes Magyarorsz. Izraelita Hitközség                                                                                                    121000111003268400000000          kölcsön                                                                                                                                                                                                                                                                                 Shomer Kft                                                                                                                                  121000111021404600000000          NOTPRO        121000111021404600000000                           121000111003268400000000    00000004000000020171220       
12211   25617463       -000000010000000HUF                                                                                                                                            Egységes Magyarorsz. Izraelita Hitközség                                                                                                    121000111003268400000000          támogatás                                                                                                                                                                                                                                                                               EMIH Keszthelyi Hitközség                                                                                                                   121000111015624300000000          NOTPRO        121000111015624300000000                           121000111003268400000000    00000001000000020171220       
12212   25618310        000000260000000HUF                                                                                                                                            Emih Dél-Magyarorsz. Izraelita Hitközség                                                                                                    121000111024958100000000          kölcsön                                                                                                                                                                                                                                                                                 EMIH                                                                                                                                        121000111003268400000000          NOTPRO        121000111003268400000000    00000026000000020171220121000111024958100000000                                  
12211   25618313       -000000200000000HUF                                                                                                                                            Egységes Magyarorsz. Izraelita Hitközség                                                                                                    121000111003268400000000          kölcsön                                                                                                                                                                                                                                                                                 CHABAD Alapítvány                                                                                                                           121000111012522100000000          NOTPRO        121000111012522100000000                           121000111003268400000000    00000020000000020171220       
12108   25618622        000000000400000HUF                                                                                                                                                                                                                                                                                        1210000418000160                                                                                                                                                                                                                                                                                                                                                                                                                                                      1210001110032684                                1210001110032684        HUF 000000000400000201712201210000418000160                                          
12108   25618624        000000000150000HUF                                                                                                                                                                                                                                                                                        1210000418000160                                                                                                                                                                                                                                                                                                                                                                                                                                                      1210001110032684                                1210001110032684        HUF 000000000150000201712201210000418000160                                          
12108   25618626        000000000200000HUF                                                                                                                                                                                                                                                                                        1210000418000160                                                                                                                                                                                                                                                                                                                                                                                                                                                      1210001110032684                                1210001110032684        HUF 000000000200000201712201210000418000160                                          
12108   25618628        000000000100000HUF                                                                                                                                                                                                                                                                                        1210000418000160                                                                                                                                                                                                                                                                                                                                                                                                                                                      1210001110032684                                1210001110032684        HUF 000000000100000201712201210000418000160                                          
12108   25618630        000000000500000HUF                                                                                                                                                                                                                                                                                        1210000418000160                                                                                                                                                                                                                                                                                                                                                                                                                                                      1210001110032684                                1210001110032684        HUF 000000000500000201712201210000418000160                                          
12108   25618632        000000000100000HUF                                                                                                                                                                                                                                                                                        1210000418000160                                                                                                                                                                                                                                                                                                                                                                                                                                                      1210001110032684                                1210001110032684        HUF 000000000100000201712201210000418000160                                          
12108   25618634        000000000100000HUF                                                                                                                                                                                                                                                                                        1210000418000160                                                                                                                                                                                                                                                                                                                                                                                                                                                      1210001110032684                                1210001110032684        HUF 000000000100000201712201210000418000160                                          
12108   25618636        000000000050000HUF                                                                                                                                                                                                                                                                                        1210000418000160                                                                                                                                                                                                                                                                                                                                                                                                                                                      1210001110032684                                1210001110032684        HUF 000000000050000201712201210000418000160                                          
12108   25618638        000000000500000HUF                                                                                                                                                                                                                                                                                        1210000418000160                                                                                                                                                                                                                                                                                                                                                                                                                                                      1210001110032684                                1210001110032684        HUF 000000000500000201712201210000418000160                                          
12108   25618640        000000000400000HUF                                                                                                                                                                                                                                                                                        1210000418000160                                                                                                                                                                                                                                                                                                                                                                                                                                                      1210001110032684                                1210001110032684        HUF 000000000400000201712201210000418000160                                          
12108   25618642        000000000500000HUF                                                                                                                                                                                                                                                                                        1210000418000160                                                                                                                                                                                                                                                                                                                                                                                                                                                      1210001110032684                                1210001110032684        HUF 000000000500000201712201210000418000160                                          
12108   25618644        000000000300000HUF                                                                                                                                                                                                                                                                                        1210000418000160                                                                                                                                                                                                                                                                                                                                                                                                                                                      1210001110032684                                1210001110032684        HUF 000000000300000201712201210000418000160                                          
12108   25618646        000000000100000HUF                                                                                                                                                                                                                                                                                        1210000418000160                                                                                                                                                                                                                                                                                                                                                                                                                                                      1210001110032684                                1210001110032684        HUF 000000000100000201712201210000418000160                                          
12108   25618648        000000000500000HUF                                                                                                                                                                                                                                                                                        1210000418000160                                                                                                                                                                                                                                                                                                                                                                                                                                                      1210001110032684                                1210001110032684        HUF 000000000500000201712201210000418000160                                          
12108   25618650        000000001000000HUF                                                                                                                                                                                                                                                                                        1210000418000160                                                                                                                                                                                                                                                                                                                                                                                                                                                      1210001110032684                                1210001110032684        HUF 000000001000000201712201210000418000160                                          
12108   25618652        000000000500000HUF                                                                                                                                                                                                                                                                                        1210000418000160                                                                                                                                                                                                                                                                                                                                                                                                                                                      1210001110032684                                1210001110032684        HUF 000000000500000201712201210000418000160                                          
12108   25618654        000000000100000HUF                                                                                                                                                                                                                                                                                        1210000418000160                                                                                                                                                                                                                                                                                                                                                                                                                                                      1210001110032684                                1210001110032684        HUF 000000000100000201712201210000418000160                                          
12108   25618656        000000000500000HUF                                                                                                                                                                                                                                                                                        1210000418000160                                                                                                                                                                                                                                                                                                                                                                                                                                                      1210001110032684                                1210001110032684        HUF 000000000500000201712201210000418000160                                          
12108   25618658        000000000050000HUF                                                                                                                                                                                                                                                                                        1210000418000160                                                                                                                                                                                                                                                                                                                                                                                                                                                      1210001110032684                                1210001110032684        HUF 000000000050000201712201210000418000160                                          
12108   25618660        000000000100000HUF                                                                                                                                                                                                                                                                                        1210000418000160                                                                                                                                                                                                                                                                                                                                                                                                                                                      1210001110032684                                1210001110032684        HUF 000000000100000201712201210000418000160                                          
12108   25618662        000000000200000HUF                                                                                                                                                                                                                                                                                        1210000418000160                                                                                                                                                                                                                                                                                                                                                                                                                                                      1210001110032684                                1210001110032684        HUF 000000000200000201712201210000418000160                                          
12108   25618664        000000000500000HUF                                                                                                                                                                                                                                                                                        1210000418000160                                                                                                                                                                                                                                                                                                                                                                                                                                                      1210001110032684                                1210001110032684        HUF 000000000500000201712201210000418000160                                          
12108   25618666        000000000100000HUF                                                                                                                                                                                                                                                                                        1210000418000160                                                                                                                                                                                                                                                                                                                                                                                                                                                      1210001110032684                                1210001110032684        HUF 000000000100000201712201210000418000160                                          
12108   25618668        000000000200000HUF                                                                                                                                                                                                                                                                                        1210000418000160                                                                                                                                                                                                                                                                                                                                                                                                                                                      1210001110032684                                1210001110032684        HUF 000000000200000201712201210000418000160                                          
12108   25618670        000000000500000HUF                                                                                                                                                                                                                                                                                        1210000418000160                                                                                                                                                                                                                                                                                                                                                                                                                                                      1210001110032684                                1210001110032684        HUF 000000000500000201712201210000418000160                                          
12108   25618672        000000000500000HUF                                                                                                                                                                                                                                                                                        1210000418000160                                                                                                                                                                                                                                                                                                                                                                                                                                                      1210001110032684                                1210001110032684        HUF 000000000500000201712201210000418000160                                          
12108   25618674        000000000500000HUF                                                                                                                                                                                                                                                                                        1210000418000160                                                                                                                                                                                                                                                                                                                                                                                                                                                      1210001110032684                                1210001110032684        HUF 000000000500000201712201210000418000160                                          
12108   25618676        000000000200000HUF                                                                                                                                                                                                                                                                                        1210000418000160                                                                                                                                                                                                                                                                                                                                                                                                                                                      1210001110032684                                1210001110032684        HUF 000000000200000201712201210000418000160                                          
12108   25618678        000000000080000HUF                                                                                                                                                                                                                                                                                        1210000418000160                                                                                                                                                                                                                                                                                                                                                                                                                                                      1210001110032684                                1210001110032684        HUF 000000000080000201712201210000418000160                                          
12108   25618680        000000000100000HUF                                                                                                                                                                                                                                                                                        1210000418000160                                                                                                                                                                                                                                                                                                                                                                                                                                                      1210001110032684                                1210001110032684        HUF 000000000100000201712201210000418000160                                          
12108   25618682        000000000200000HUF                                                                                                                                                                                                                                                                                        1210000418000160                                                                                                                                                                                                                                                                                                                                                                                                                                                      1210001110032684                                1210001110032684        HUF 000000000200000201712201210000418000160                                          
12108   25618684        000000000500000HUF                                                                                                                                                                                                                                                                                        1210000418000160                                                                                                                                                                                                                                                                                                                                                                                                                                                      1210001110032684                                1210001110032684        HUF 000000000500000201712201210000418000160                                          
12108   25618686        000000000500000HUF                                                                                                                                                                                                                                                                                        1210000418000160                                                                                                                                                                                                                                                                                                                                                                                                                                                      1210001110032684                                1210001110032684        HUF 000000000500000201712201210000418000160                                          
12212   25618886        000000100000000HUF                                                                                                                                            Oloesz Keresk. És Szolg. Kft                                                                                                                121000111021387000000000          kölcsön                                                                                                                                                                                                                                                                                 EMIH                                                                                                                                        121000111003268400000000          NOTPRO        121000111003268400000000    00000010000000020171220121000111021387000000000                                  
12211   25618887       -000000200000000HUF                                                                                                                                            Egységes Magyarorsz. Izraelita Hitközség                                                                                                    121000111003268400000000          kölcsön                                                                                                                                                                                                                                                                                 CHABAD Alapítvány                                                                                                                           121000111012522100000000          NOTPRO        121000111012522100000000                           121000111003268400000000    00000020000000020171220       
12212   25621289        000000300000000HUF                                                                                                                                            Oloesz Keresk. És Szolg. Kft                                                                                                                121000111021387000000000          kölcsön                                                                                                                                                                                                                                                                                 EMIH                                                                                                                                        121000111003268400000000          NOTPRO        121000111003268400000000    00000030000000020171220121000111021387000000000                                  
12158   25621445        000000000200000HUF                                                                                                                                            RATKÓ ISTVÁNNÉ ÉS RATKÓ ÉVA     LAFO                                                                                                        117731330385059800000000          EB adomány, Ratkóné Korodi Ilona                                                                                                                                                                                                                                                        EMIH                                                                                                                                        121000111003268400000000          NOTPRO        121000111003268400000000    00000000020000020171220117731330385059800000000                                  
13                                                                                                                                                                                                                                                                                                                                                                                                                                                                                                                                                                                                                                                                                                                                                                                                                                                                                                                                                                   
14                                                                                                                                                                                                                                                                                                                                                                                                                                                                                                                                                                                                                                                                                                                                                                                                                                                                                                                                                                   
