11201     1210001110224753        HUFOloesz Keresk. És Sz12100011GRÁNIT Bank Zrt. Köz2017122020171220           32593300           87998800Oloesz Keresk. És Szolg. Kft                      Károly körút 20 1052 Budapest                                                                                                                                                                                                                                                                                                                                                                                                                                                                                                                                                                                                                                                                                                                                           
12165   25603108       -000000005413200HUF                                                                                                                                            Oloesz Keresk. És Szolg. Kft folyószámlája                                                                                                  121000111022475300000000          Sorsz m: 131                                                                                                                                                                                                                                                                            Webz r Kft.                                                                                                                                 117440032113680900000000          NOTPRO        117440032113680900000000                           121000111022475300000000    00000000541320020171220       
12411   25609859       -000000002815000HUF                                                                                                                                                                                                                                                                                        1210001110224753                  2017.12.18 10:42                5586440017885038 42000200       SZERELVE'NY U:ZLET                                                                                                                                                                                                                                                                                                                                                  1210001110224753                                1210001110224753        HUF                        1210001110224753        HUF 00000000281500020171220       
12411   25609957       -000000003527600HUF                                                                                                                                                                                                                                                                                        1210001110224753                  2017.12.18 11:56                5586440017885038 HH610040       Szerelveny Centrum                                                                                                                                                                                                                                                                                                                                                  1210001110224753                                1210001110224753        HUF                        1210001110224753        HUF 00000000352760020171220       
12212   25621839        000000067161300HUF                                                                                                                                            Olajág Otthonok                                                                                                                             121000111003778200000000          AN17000213,214,215,216,217,218,219,220,221,222,223                                                                                                                                                                                                                                      OLOESZ Kft. Karbant.                                                                                                                        121000111022475300000000          NOTPRO        121000111022475300000000    00000006716130020171220121000111003778200000000                                  
13                                                                                                                                                                                                                                                                                                                                                                                                                                                                                                                                                                                                                                                                                                                                                                                                                                                                                                                                                                   
11238     1210001110217386        HUFOloesz Keresk. És Sz12100011GRÁNIT Bank Zrt. Köz2017122020171220           98388900           61577400Oloesz Keresk. És Szolg. Kft                      Károly körút 20 1052 Budapest                                                                                                                                                                                                                                                                                                                                                                                                                                                                                                                                                                                                                                                                                                                                           
12158   25602852        000000013831000HUF                                                                                                                                            SIX PAYMENT SERVICES (EUROPE) SA                                                                                                            120010080148515200100001          ALL   140345.00/NR.0080063318      KOM.  2035.00/DAT.18.12.2017       Oloesz Kft.         /Budapest                                                                                                                                                                                     Oloesz Kft.                        Dob u. 31HU-1074 Budapest HU                                                                             121000111021738600000000          NOTPRO        121000111021738600000000    00000001383100020171220120010080148515200100001                                  
12165   25604661       -000000015858000HUF                                                                                                                                            Oloesz Keresk. És Szolg. Kft                                                                                                                121000111021738600000000          714301402815                                                                                                                                                                                                                                                                            Elmû Hálózat Kft.                                                                                                                           103000021029561449020025          NOTPRO        103000021029561449020025                           121000111021738600000000    00000001585800020171220       
12165   25604662       -000000005817700HUF                                                                                                                                            Oloesz Keresk. És Szolg. Kft                                                                                                                121000111021738600000000          sza00361/2017sza00368/2017,sza00383/2017                                                                                                                                                                                                                                                Oblath és Társai Holding Kft.                                                                                                               120102400114140500100001          NOTPRO        120102400114140500100001                           121000111021738600000000    00000000581770020171220       
12165   25604663       -000000005461000HUF                                                                                                                                            Oloesz Keresk. És Szolg. Kft                                                                                                                121000111021738600000000          E/AJ109/1/2017                                                                                                                                                                                                                                                                          TINTI KLÍMA kft                                                                                                                             109180010000003458070009          NOTPRO        109180010000003458070009                           121000111021738600000000    00000000546100020171220       
12165   25604664       -000000018560000HUF                                                                                                                                            Oloesz Keresk. És Szolg. Kft                                                                                                                121000111021738600000000          4856/2017k                                                                                                                                                                                                                                                                              Kalmarket Kft                                                                                                                               109180010000007414800004          NOTPRO        109180010000007414800004                           121000111021738600000000    00000001856000020171220       
12165   25604665       -000000024862900HUF                                                                                                                                            Oloesz Keresk. És Szolg. Kft                                                                                                                121000111021738600000000          sbasa0467006sbasa0467007sbasa0467005sbasa0467009sbasa0467010sbasa0467008                                                                                                                                                                                                                Balázs Zsolt. E.V.                                                                                                                          117030062139444100000000          NOTPRO        117030062139444100000000                           121000111021738600000000    00000002486290020171220       
12165   25604666       -000000003057900HUF                                                                                                                                            Oloesz Keresk. És Szolg. Kft                                                                                                                121000111021738600000000          14530746                                                                                                                                                                                                                                                                                Lindström                                                                                                                                   109180010000044013980050          NOTPRO        109180010000044013980050                           121000111021738600000000    00000000305790020171220       
12165   25604667       -000000003079800HUF                                                                                                                                            Oloesz Keresk. És Szolg. Kft                                                                                                                121000111021738600000000          1901vb17                                                                                                                                                                                                                                                                                BEZULA Kft.                                                                                                                                 104021420002816600000005          NOTPRO        104021420002816600000005                           121000111021738600000000    00000000307980020171220       
12165   25604668       -000000004267200HUF                                                                                                                                            Oloesz Keresk. És Szolg. Kft                                                                                                                121000111021738600000000          20170239                                                                                                                                                                                                                                                                                Qawa Kft.                                                                                                                                   109180010000010694180007          NOTPRO        109180010000010694180007                           121000111021738600000000    00000000426720020171220       
12158   25613741        000000005322000HUF                                                                                                                                            MAZSÖK                                                                                                                                      117840092030074200000000          EI17000207 szla                                                                                                                                                                                                                                                                         OLOESZ Kft.                                                                                                                                 121000111021738600000000          NOTPRO        121000111021738600000000    00000000532200020171220117840092030074200000000                                  
12202   25618325        000000025000000HUF                                                                                                                                            EMIH Dél-Magyarorsz. Izraelita H                                                                                                            1210001110249581                  EI17000209                      I#525#                                                                                                                                                                                                                                                                                                                                                                                              1210001110217386                                1210001110217386        HUF 000000025000000201712201210001110249581                                          
13                                                                                                                                                                                                                                                                                                                                                                                                                                                                                                                                                                                                                                                                                                                                                                                                                                                                                                                                                                   
11163     1210001110252136        HUFOloesz Keresk. És Sz12100011GRÁNIT Bank Zrt. Köz2017122020171220           77337500           15746000Oloesz Keresk. És Szolg. Kft                      Károly körút 20 1052 Budapest                                                                                                                                                                                                                                                                                                                                                                                                                                                                                                                                                                                                                                                                                                                                           
12165   25603094       -000000008451900HUF                                                                                                                                            Oloesz Keresk. És Szolg. Kft. folyószámlája                                                                                                 121000111025213600000000          2017/00292 I#15607#                                                                                                                                                                                                                                                                     FB INVESTOR Kft.                                                                                                                            117420322001518500000000          NOTPRO        117420322001518500000000                           121000111025213600000000    00000000845190020171220       
12165   25603095       -000000011126900HUF                                                                                                                                            Oloesz Keresk. És Szolg. Kft. folyószámlája                                                                                                 121000111025213600000000          2017/00289 I#15096#                                                                                                                                                                                                                                                                     FB INVESTOR Kft.                                                                                                                            117420322001518500000000          NOTPRO        117420322001518500000000                           121000111025213600000000    00000001112690020171220       
12165   25603096       -000000010740600HUF                                                                                                                                            Oloesz Keresk. És Szolg. Kft. folyószámlája                                                                                                 121000111025213600000000          2017/00291 I#15089#                                                                                                                                                                                                                                                                     FB INVESTOR Kft.                                                                                                                            117420322001518500000000          NOTPRO        117420322001518500000000                           121000111025213600000000    00000001074060020171220       
12165   25603097       -000000010000100HUF                                                                                                                                            Oloesz Keresk. És Szolg. Kft. folyószámlája                                                                                                 121000111025213600000000          NJ6SA4297070 I#15336#                                                                                                                                                                                                                                                                   R DAI+R  p t ipari Ús Szolg lt                                                                                                              116000060000000011843535          NOTPRO        116000060000000011843535                           121000111025213600000000    00000001000010020171220       
12165   25603098       -000000004851000HUF                                                                                                                                            Oloesz Keresk. És Szolg. Kft. folyószámlája                                                                                                 121000111025213600000000          NJ6SA3325511 I#15351#                                                                                                                                                                                                                                                                   T r k Istv n e.v.                                                                                                                           104029915052687151531007          NOTPRO        104029915052687151531007                           121000111025213600000000    00000000485100020171220       
12165   25603099       -000000005171000HUF                                                                                                                                            Oloesz Keresk. És Szolg. Kft. folyószámlája                                                                                                 121000111025213600000000          NJ6SA3325510 I#15350#                                                                                                                                                                                                                                                                   T r k Istv n e.v.                                                                                                                           104029915052687151531007          NOTPRO        104029915052687151531007                           121000111025213600000000    00000000517100020171220       
12165   25603100       -000000005171000HUF                                                                                                                                            Oloesz Keresk. És Szolg. Kft. folyószámlája                                                                                                 121000111025213600000000          NJ6SA3325512 I#15349#                                                                                                                                                                                                                                                                   T r k Istv n e.v.                                                                                                                           104029915052687151531007          NOTPRO        104029915052687151531007                           121000111025213600000000    00000000517100020171220       
12165   25603101       -000000005008000HUF                                                                                                                                            Oloesz Keresk. És Szolg. Kft. folyószámlája                                                                                                 121000111025213600000000          NJ6SA3325515 I#15346#                                                                                                                                                                                                                                                                   T r k Istv n e.v.                                                                                                                           104029915052687151531007          NOTPRO        104029915052687151531007                           121000111025213600000000    00000000500800020171220       
12165   25603102       -000000007351000HUF                                                                                                                                            Oloesz Keresk. És Szolg. Kft. folyószámlája                                                                                                 121000111025213600000000          NJ6SA3325516 I#15345#                                                                                                                                                                                                                                                                   T r k Istv n e.v.                                                                                                                           104029915052687151531007          NOTPRO        104029915052687151531007                           121000111025213600000000    00000000735100020171220       
12165   25603103       -000000008720000HUF                                                                                                                                            Oloesz Keresk. És Szolg. Kft. folyószámlája                                                                                                 121000111025213600000000          NJ6SA3325513 I#15343#                                                                                                                                                                                                                                                                   T r k Istv n e.v.                                                                                                                           104029915052687151531007          NOTPRO        104029915052687151531007                           121000111025213600000000    00000000872000020171220       
12212   25621854        000000015000000HUF                                                                                                                                            Olajág Otthonok                                                                                                                             121000111003778200000000          kölcsön                                                                                                                                                                                                                                                                                 Oloesz alv.                                                                                                                                 121000111025213600000000          NOTPRO        121000111025213600000000    00000001500000020171220121000111003778200000000                                  
13                                                                                                                                                                                                                                                                                                                                                                                                                                                                                                                                                                                                                                                                                                                                                                                                                                                                                                                                                                   
11224     1210001110213870        HUFOloesz Keresk. És Sz12100011GRÁNIT Bank Zrt. Köz2017122020171220          237612400           76904800Oloesz Keresk. És Szolg. Kft                      Károly körút 20 1052 Budapest                                                                                                                                                                                                                                                                                                                                                                                                                                                                                                                                                                                                                                                                                                                                           
12202   25617851        000000009042400HUF                                                                                                                                            QUALITY POULTRY Kft/Óvadék folyó                                                                                                            1210001110154753                  KL17000222                      I#1403#                                                                                                                                                                                                                                                                                                                                                                                             1210001110213870                                1210001110213870        HUF 000000009042400201712201210001110154753                                          
122     25618619        000000230250000HUF                                                                                                                                                                                                                                                                                        1210001110213870                                                                                                                                                                                                                                                                                                                                                                                                                                                      1210001110213870                                1210001110213870        HUF 000000230250000201712201210001110213870        HUF                               
12211   25618885       -000000100000000HUF                                                                                                                                            Oloesz Keresk. És Szolg. Kft                                                                                                                121000111021387000000000          kölcsön                                                                                                                                                                                                                                                                                 EMIH                                                                                                                                        121000111003268400000000          NOTPRO        121000111003268400000000                           121000111021387000000000    00000010000000020171220       
12211   25621288       -000000300000000HUF                                                                                                                                            Oloesz Keresk. És Szolg. Kft                                                                                                                121000111021387000000000          kölcsön                                                                                                                                                                                                                                                                                 EMIH                                                                                                                                        121000111003268400000000          NOTPRO        121000111003268400000000                           121000111021387000000000    00000030000000020171220       
13                                                                                                                                                                                                                                                                                                                                                                                                                                                                                                                                                                                                                                                                                                                                                                                                                                                                                                                                                                   
14                                                                                                                                                                                                                                                                                                                                                                                                                                                                                                                                                                                                                                                                                                                                                                                                                                                                                                                                                                   
