1100324   135975391230201000057157HUF                                                                          176498800            1051900                                                                                                                                                                                                                                                                                                                                                                                                                                                                                                                                                                                                                                                                                                                                                                                                                          
12301                  -000000029500000HUF                                                                                                                                                                                                                                                                                                                          Forint átutalás                                                       Címzett:Gémes Zsófi                Számlaszám:1177306100420013                                                                                                                                                    Gémes Zsófi                                                                                                                                 1177306100420013                                                                                                               00000002950000020171220       
12699                  -000000000103500HUF                                                                                                                                                                                                                                                                                                                          Banki jutalék                                                                                                                                                                                                                                                                                                                                                                                                                                                                                                                                                      00000000010350020171220       
12301                  -000000007830900HUF                                                                                                                                                                                                                                                                                                                          Forint átutalás                                                       Címzett:Bethlenfavy Bálint Kornél eSzámlaszám:107020196584372151100005                                                                                                                                            Bethlenfavy Bálint Kornél e                                                                                                                 107020196584372151100005                                                                                                       00000000783090020171220       
12699                  -000000000038500HUF                                                                                                                                                                                                                                                                                                                          Banki jutalék                                                                                                                                                                                                                                                                                                                                                                                                                                                                                                                                                      00000000003850020171220       
12301                  -000000010000000HUF                                                                                                                                                                                                                                                                                                                          Forint átutalás                                                       Címzett:Szabó Balázs               Számlaszám:116000060000000066126610                                                                                                                                            Szabó Balázs                                                                                                                                116000060000000066126610                                                                                                       00000001000000020171220       
12699                  -000000000045000HUF                                                                                                                                                                                                                                                                                                                          Banki jutalék                                                                                                                                                                                                                                                                                                                                                                                                                                                                                                                                                      00000000004500020171220       
12301                  -000000015000000HUF                                                                                                                                                                                                                                                                                                                          Forint átutalás                                                       Címzett:Görög Julianna             Számlaszám:104021667649485757531009                                                                                                                                            Görög Julianna                                                                                                                              104021667649485757531009                                                                                                       00000001500000020171220       
12699                  -000000000060000HUF                                                                                                                                                                                                                                                                                                                          Banki jutalék                                                                                                                                                                                                                                                                                                                                                                                                                                                                                                                                                      00000000006000020171220       
12301                  -000000020000000HUF                                                                                                                                                                                                                                                                                                                          Forint átutalás                                                       Címzett:Diskurzus KKT              Számlaszám:104010005052668266891008                                                                                                                                            Diskurzus KKT                                                                                                                               104010005052668266891008                                                                                                       00000002000000020171220       
12699                  -000000000075000HUF                                                                                                                                                                                                                                                                                                                          Banki jutalék                                                                                                                                                                                                                                                                                                                                                                                                                                                                                                                                                      00000000007500020171220       
12301                  -000000020500000HUF                                                                                                                                                                                                                                                                                                                          Forint átutalás                                                       Címzett:Tóth-Pákai Adrienn         Számlaszám:117734320499243100000000                                                                                                                                            Tóth-Pákai Adrienn                                                                                                                          117734320499243100000000                                                                                                       00000002050000020171220       
12699                  -000000000076500HUF                                                                                                                                                                                                                                                                                                                          Banki jutalék                                                                                                                                                                                                                                                                                                                                                                                                                                                                                                                                                      00000000007650020171220       
12601                  -000000072000000HUF                                                                                                                                                                                                                                                                                                                          Átvezetés bankon belül             bérleti díj                        Számlaszám:1230201000031397(EMIH HI                                                                                                                                                                               EMIH HITKÖZSÉG                                                                                                                              135975391230201000031397                                                                                                       00000007200000020171220       
12699                  -000000000217500HUF                                                                                                                                                                                                                                                                                                                          Banki jutalék                                                                                                                                                                                                                                                                                                                                                                                                                                                                                                                                                      00000000021750020171220       
13                                                                                                                                                                                                                                                                                                                                                                                                                                                                                                                                                                                                                                                                                                                                                                                                                                                                                                                                                                   
14                                                                                                                                                                                                                                                                                                                                                                                                                                                                                                                                                                                                                                                                                                                                                                                                                                                                                                                                                                   
