1177      1210001110214046        HUFShomer Security Kft.12100011GRÁNIT Bank Zrt. Köz2017122020171220            5371000            4371000Shomer Security Kft.                              Károly körút 20 1052 Budapest                                                                                                                                                                                                                                                                                                                                                                                                                                                                                                                                                                                                                                                                                                                                           
12202   25610029        000000038100000HUF                                                                                                                                            Egységes Magyarorsz. Izraelita H                                                                                                            1210001110032684                  VL1SA8573766                    I#18913#                                                                                                                                                                                                                                                                                                                                                                                            1210001110214046                                1210001110214046        HUF 000000038100000201712201210001110032684                                          
12212   25611377        000000040000000HUF                                                                                                                                            Egységes Magyarorsz. Izraelita Hitközség                                                                                                    121000111003268400000000          kölcsön                                                                                                                                                                                                                                                                                 Shomer Kft                                                                                                                                  121000111021404600000000          NOTPRO        121000111021404600000000    00000004000000020171220121000111003268400000000                                  
12165   25611418       -000000021300000HUF                                                                                                                                            SHOMER SECURITY Kft.                                                                                                                        121000111021404600000000          Adószám: 25316845-2-41                                                                                                                                                                                                                                                                  NAV SZJA msz-tõl levont                                                                                                                     100320000605595000000000          NOTPRO        100320000605595000000000                           121000111021404600000000    00000002130000020171220       
12165   25611419       -000000014300000HUF                                                                                                                                            SHOMER SECURITY Kft.                                                                                                                        121000111021404600000000          Adószám: 25316845-2-41                                                                                                                                                                                                                                                                  NAV nyugbizt. jár.                                                                                                                          100320000605597400000000          NOTPRO        100320000605597400000000                           121000111021404600000000    00000001430000020171220       
12165   25611420       -000000011100000HUF                                                                                                                                            SHOMER SECURITY Kft.                                                                                                                        121000111021404600000000          Adószám: 25316845-2-41                                                                                                                                                                                                                                                                  NAV egbizt. jár.                                                                                                                            100320000605598100000000          NOTPRO        100320000605598100000000                           121000111021404600000000    00000001110000020171220       
12165   25611421       -000000030300000HUF                                                                                                                                            SHOMER SECURITY Kft.                                                                                                                        121000111021404600000000          Adószám: 25316845-2-41                                                                                                                                                                                                                                                                  NAV szocho                                                                                                                                  100320000605591200000000          NOTPRO        100320000605591200000000                           121000111021404600000000    00000003030000020171220       
12165   25611422       -000000002100000HUF                                                                                                                                            SHOMER SECURITY Kft.                                                                                                                        121000111021404600000000          Adószám: 25316845-2-41                                                                                                                                                                                                                                                                  NAV szakképz. hj.                                                                                                                           100320000605606100000000          NOTPRO        100320000605606100000000                           121000111021404600000000    00000000210000020171220       
13                                                                                                                                                                                                                                                                                                                                                                                                                                                                                                                                                                                                                                                                                                                                                                                                                                                                                                                                                                   
14                                                                                                                                                                                                                                                                                                                                                                                                                                                                                                                                                                                                                                                                                                                                                                                                                                                                                                                                                                   
