1100023   135204051330201000005713HUF                                                                            2161500            3827200                                                                                                                                                                                                                                                                                                                                                                                                                                                                                                                                                                                                                                                                                                                                                                                                                          
12201                   000000060000000HUF                                                                                                                                            EMIH Óbudai Hitközség                                                                                                                       135204051330201000004932          Átvezetés bankon belül             Küldõ:1330201000004932(EMIH Óbudai támogatás                                                                                                                                                                                                                                                                                                                                                                                                                                 00000006000000020171219                                                          
12301                  -000000010700000HUF                                                                                                                                                                                                                                                                                                                          Forint átutalás                    Adószám: 18903829-1-41             Címzett:NAV Nyugdíjbiztosítási AlapSzámlaszám:1003200006055974                                                                                                                                                    NAV Nyugdíjbiztosítási Alap                                                                                                                 1003200006055974                                                                                                               00000001070000020171219       
12699                  -000000000047100HUF                                                                                                                                                                                                                                                                                                                          Banki jutalék                                                                                                                                                                                                                                                                                                                                                                                                                                                                                                                                                      00000000004710020171219       
12301                  -000000009000000HUF                                                                                                                                                                                                                                                                                                                          Forint átutalás                    Adószám: 18903829-1-41             Címzett:nav eGÉSZSÉGBIZTOSÍTÁSI aLASzámlaszám:1003200006055981                                                                                                                                                    nav eGÉSZSÉGBIZTOSÍTÁSI aLA                                                                                                                 1003200006055981                                                                                                               00000000900000020171219       
12699                  -000000000042000HUF                                                                                                                                                                                                                                                                                                                          Banki jutalék                                                                                                                                                                                                                                                                                                                                                                                                                                                                                                                                                      00000000004200020171219       
12301                  -000000023400000HUF                                                                                                                                                                                                                                                                                                                          Forint átutalás                    Adószám: 18903829-1-41             Címzett:NAV Szociális hozzájárulásiSzámlaszám:1003200006055912                                                                                                                                                    NAV Szociális hozzájárulási                                                                                                                 1003200006055912                                                                                                               00000002340000020171219       
12699                  -000000000085200HUF                                                                                                                                                                                                                                                                                                                          Banki jutalék                                                                                                                                                                                                                                                                                                                                                                                                                                                                                                                                                      00000000008520020171219       
12301                  -000000015000000HUF                                                                                                                                                                                                                                                                                                                          Forint átutalás                    Adószám: 18903829-1-41             Címzett:NAV Személyi jövedelemadó  Számlaszám:1003200006055950                                                                                                                                                    NAV Személyi jövedelemadó                                                                                                                   1003200006055950                                                                                                               00000001500000020171219       
12699                  -000000000060000HUF                                                                                                                                                                                                                                                                                                                          Banki jutalék                                                                                                                                                                                                                                                                                                                                                                                                                                                                                                                                                      00000000006000020171219       
13                                                                                                                                                                                                                                                                                                                                                                                                                                                                                                                                                                                                                                                                                                                                                                                                                                                                                                                                                                   
14                                                                                                                                                                                                                                                                                                                                                                                                                                                                                                                                                                                                                                                                                                                                                                                                                                                                                                                                                                   
