1101100   135975391230201000031366HUF                                                                           23952400           33952400                                                                                                                                                                                                                                                                                                                                                                                                                                                                                                                                                                                                                                                                                                                                                                                                                          
12201                   000000010000000HUF                                                                                                                                            EMIH HITKÖZSÉG                                                                                                                              135975391230201000031397          Átvezetés bankon belül             Küldõ:1230201000031397(EMIH HITKÖZSkölcsön                                                                                                                                                                                                                                                                                                                                                                                                                                   00000001000000020171219                                                          
13                                                                                                                                                                                                                                                                                                                                                                                                                                                                                                                                                                                                                                                                                                                                                                                                                                                                                                                                                                   
1100438   135975391230201000031373USD                                                                              39579              47897                                                                                                                                                                                                                                                                                                                                                                                                                                                                                                                                                                                                                                                                                                                                                                                                                          
12201                   000000001151654USD                                                                                                                                            Hiv. szám: 1230ITT171016652                                                                                                                 652853288672                      Bejövõ utalás jóváírása            Hiv. szám: 1230ITT171016652        DONATION YOUTH PROGRAM EUR/ 1000   0/ARF:309.53 HUF/EUR 268.77 HUF/                                                                                                                                                                                                                                                                                                                                                                       00000000115165420171219                                                          
12601                  -000000001143336USD                                                                                                                                                                                                                                                                                                                          Átvezetés bankon belül             CHABAD LUBAVITS ZSIDÓ NEVEL        Számlaszám:1230201000051852(CHABAD                                                                                                                                                                                CHABAD LUBAVITS ALAPÍTVÁNY                                                                                                                  135975391230201000051852                                                                                                       00000000114333620171219       
13                                                                                                                                                                                                                                                                                                                                                                                                                                                                                                                                                                                                                                                                                                                                                                                                                                                                                                                                                                   
1100856   135975391230201000051852HUF                                                                           27219900           50211500                                                                                                                                                                                                                                                                                                                                                                                                                                                                                                                                                                                                                                                                                                                                                                                                                          
12201                   000000300000000HUF                                                                                                                                            CHABAD LUBAVITS ALAPÍTVÁNY                                                                                                                  135975391230201000031373          Átvezetés bankon belül             Küldõ:1230201000031373(CHABAD LUBAVCHABAD LUBAVITS ZSIDÓ NEVEL                                                                                                                                                                                                                                                                                                                                                                                                               00000030000000020171219                                                          
12301                  -000000001181100HUF                                                                                                                                                                                                                                                                                                                          Forint átutalás                    CHABAD ALAPÍTVÁNY SZLA: 2017/05083                                    Címzett:REGINAQUA KFT                                                                                                                                                          REGINAQUA KFT                                                                                                                               104050040000526200000001                                                                                                       00000000118110020171219       
12699                  -000000000018500HUF                                                                                                                                                                                                                                                                                                                          Banki jutalék                                                                                                                                                                                                                                                                                                                                                                                                                                                                                                                                                      00000000001850020171219       
12301                  -000000072287500HUF                                                                                                                                                                                                                                                                                                                          Forint átutalás                    ÖSZTÖNDÍJ SHALOM IZEMBERGER        Címzett:SHALOM DOV BER IZEMBERGER  Számlaszám:116000060000000075282354                                                                                                                                            SHALOM DOV BER IZEMBERGER                                                                                                                   116000060000000075282354                                                                                                       00000007228750020171219       
12699                  -000000000231900HUF                                                                                                                                                                                                                                                                                                                          Banki jutalék                                                                                                                                                                                                                                                                                                                                                                                                                                                                                                                                                      00000000023190020171219       
12301                  -000000072287500HUF                                                                                                                                                                                                                                                                                                                          Forint átutalás                    ÖSZTÖNDÍJ ESTHER IZEMBERGER        Címzett:SHALOM DOV BER IZEMBERGER  Számlaszám:116000060000000075282354                                                                                                                                            SHALOM DOV BER IZEMBERGER                                                                                                                   116000060000000075282354                                                                                                       00000007228750020171219       
12699                  -000000000231900HUF                                                                                                                                                                                                                                                                                                                          Banki jutalék                                                                                                                                                                                                                                                                                                                                                                                                                                                                                                                                                      00000000023190020171219       
12301                  -000000030000000HUF                                                                                                                                                                                                                                                                                                                          Forint átutalás                    Ösztöndíj RASKIN SHMUEL            Címzett:Raskin Shmuel              Számlaszám:116000060000000068630786                                                                                                                                            Raskin Shmuel                                                                                                                               116000060000000068630786                                                                                                       00000003000000020171219       
12699                  -000000000105000HUF                                                                                                                                                                                                                                                                                                                          Banki jutalék                                                                                                                                                                                                                                                                                                                                                                                                                                                                                                                                                      00000000010500020171219       
12301                  -000000030000000HUF                                                                                                                                                                                                                                                                                                                          Forint átutalás                    Ösztöndíj RASKIN DVORA LEA         Címzett:Raskin Shmuel              Számlaszám:116000060000000068630786                                                                                                                                            Raskin Shmuel                                                                                                                               116000060000000068630786                                                                                                       00000003000000020171219       
12699                  -000000000105000HUF                                                                                                                                                                                                                                                                                                                          Banki jutalék                                                                                                                                                                                                                                                                                                                                                                                                                                                                                                                                                      00000000010500020171219       
12101                  -000000070000000HUF                                                                                                                                                                                                                                                                                                                          kp. kifizetés                      Ügyfél neve, azonosítója:Molnár ZsoÜgyfél címe:Budapest     Lenhossék                                                                                                                                                                                Molnár Zsombor                                                                                                                                                                                                                                                             00000007000000020171219       
12699                  -000000000560000HUF                                                                                                                                                                                                                                                                                                                          Banki jutalék                                                                                                                                                                                                                                                                                                                                                                                                                                                                                                                                                      00000000056000020171219       
13                                                                                                                                                                                                                                                                                                                                                                                                                                                                                                                                                                                                                                                                                                                                                                                                                                                                                                                                                                   
1100385   135975391230201000051869EUR                                                                              21571            2021571                                                                                                                                                                                                                                                                                                                                                                                                                                                                                                                                                                                                                                                                                                                                                                                                                          
12201                   000000002000000EUR                                                                                                                                            Hiv. szám: 1230ITT171016724                                                                                                                 08805503563210010                 Bejövõ utalás jóváírása            Hiv. szám: 1230ITT171016724        /LI7208805503563210010 TNN HOLDING SCHAAN, LIECHTENSTEIN                                                                                                                                                                                                                                                                                                                                                                                  00000000200000020171219                                                          
13                                                                                                                                                                                                                                                                                                                                                                                                                                                                                                                                                                                                                                                                                                                                                                                                                                                                                                                                                                   
14                                                                                                                                                                                                                                                                                                                                                                                                                                                                                                                                                                                                                                                                                                                                                                                                                                                                                                                                                                   
