1101101   135975391230201000031366HUF                                                                           33952400            4524500                                                                                                                                                                                                                                                                                                                                                                                                                                                                                                                                                                                                                                                                                                                                                                                                                          
12301                  -000000010000000HUF                                                                                                                                                                                                                                                                                                                          Forint átutalás                    I#7254#MD5SA4684385                Címzett:dr. Moln r Emese           Számlaszám:162001201853439300000000                                                                                                                                            dr. Moln r Emese                                                                                                                            162001201853439300000000                                                                                                       00000001000000020171220       
12699                  -000000000045000HUF                                                                                                                                                                                                                                                                                                                          Banki jutalék                                                                                                                                                                                                                                                                                                                                                                                                                                                                                                                                                      00000000004500020171220       
12301                  -000000010500000HUF                                                                                                                                                                                                                                                                                                                          Forint átutalás                    I#7245#NJ6SA4341524                Címzett:Gyenes PÚter               Számlaszám:117730301198826500000000                                                                                                                                            Gyenes PÚter                                                                                                                                117730301198826500000000                                                                                                       00000001050000020171220       
12699                  -000000000046500HUF                                                                                                                                                                                                                                                                                                                          Banki jutalék                                                                                                                                                                                                                                                                                                                                                                                                                                                                                                                                                      00000000004650020171220       
12301                  -000000004097000HUF                                                                                                                                                                                                                                                                                                                          Forint átutalás                    I#7020#830800009235                Címzett:ELM - M SZ 8800020499 K.krtSzámlaszám:103000022016023070143285                                                                                                                                            ELM - M SZ 8800020499 K.krt                                                                                                                 103000022016023070143285                                                                                                       00000000409700020171220       
12699                  -000000000027300HUF                                                                                                                                                                                                                                                                                                                          Banki jutalék                                                                                                                                                                                                                                                                                                                                                                                                                                                                                                                                                      00000000002730020171220       
12301                  -000000004683100HUF                                                                                                                                                                                                                                                                                                                          Forint átutalás                    I#7018#830800009237                Címzett:ELM - M SZ 8800020499 K.krtSzámlaszám:103000022016023070143285                                                                                                                                            ELM - M SZ 8800020499 K.krt                                                                                                                 103000022016023070143285                                                                                                       00000000468310020171220       
12699                  -000000000029000HUF                                                                                                                                                                                                                                                                                                                          Banki jutalék                                                                                                                                                                                                                                                                                                                                                                                                                                                                                                                                                      00000000002900020171220       
13                                                                                                                                                                                                                                                                                                                                                                                                                                                                                                                                                                                                                                                                                                                                                                                                                                                                                                                                                                   
14                                                                                                                                                                                                                                                                                                                                                                                                                                                                                                                                                                                                                                                                                                                                                                                                                                                                                                                                                                   
