1169      1210001110154760        EURQUALITY POULTRY Kft/12100011GRÁNIT Bank Zrt. Köz2017122020171220               7625            3166755Quality Poultry Kft                               Károly körút 20 1052 Budapest                                                                                                                                                                                                                                                                                                                                                                                                                                                                                                                                                                                                                                                                                                                                           
12294   25603311        000000000664650EUR                                                                                                                                                                                                                                                                                        1210001110154760                                                                                                                                                                                                                                                                                                                                                                                                                                                      1210001110154760                                1210001110154760        EUR 000000000664650201712201210001110154760        EUR                               
12114   25606713        000000018355100EUR                                                                                                                                                                                                                                                                                        1210001110154760                                                                                                                                                                                                                                                                                                                                                                                                                                                      1210001110154760                                1210001110154760        EUR 000000018355100201712201210001110154760        EUR                               
12651   25610017       -000000015000000EUR                                                                                                                                                                                                                                                                                        1210001110154760                                                                                                                                                                                                                                                                                                                                                                                                                                                      1210001110154760                                1210001110154760        EUR                        1210001110154760        EUR 00000001500000020171220       
12261   25620854       -000000000625000EUR                                                                                                                                                                                                                                                                                        1210001110154760                                                                                                                                                                                                                                                                                                                                                                                                                                                      1210001110154760                                1210001110154760        EUR                        1210001110154760        EUR 00000000062500020171220       
12501   25622603       -000000000002100EUR                                                                                                                                                                                                                                                                                        1210001110154760                                                                                                                                                                                                                                                                                                                                                                                                                                                      1210001110154760                                1210001110154760        EUR                        1210001110154760        EUR 00000000000210020171220       
12501   25622603       -000000000000500EUR                                                                                                                                                                                                                                                                                        1210001110154760                                                                                                                                                                                                                                                                                                                                                                                                                                                      1210001110154760                                1210001110154760        EUR                        1210001110154760        EUR 00000000000050020171220       
12265   25614791       -000000000051300EUR                                                                                                                                                                                                                                                                                        1210001110154760                                                                                                                                                                                                                                                                                                                                                                                                                                                      1210001110154760                                1210001110154760        EUR                        1210001110154760        EUR 00000000005130020171220       
12265   25614794       -000000000047100EUR                                                                                                                                                                                                                                                                                        1210001110154760                                                                                                                                                                                                                                                                                                                                                                                                                                                      1210001110154760                                1210001110154760        EUR                        1210001110154760        EUR 00000000004710020171220       
12265   25617861       -000000000134620EUR                                                                                                                                                                                                                                                                                        1210001110154760                                                                                                                                                                                                                                                                                                                                                                                                                                                      1210001110154760                                1210001110154760        EUR                        1210001110154760        EUR 00000000013462020171220       
13                                                                                                                                                                                                                                                                                                                                                                                                                                                                                                                                                                                                                                                                                                                                                                                                                                                                                                                                                                   
11173     1210001110154753        HUFQUALITY POULTRY Kft/12100011GRÁNIT Bank Zrt. Köz2017122020171220            2765700         2258674500Quality Poultry Kft                               Károly körút 20 1052 Budapest                                                                                                                                                                                                                                                                                                                                                                                                                                                                                                                                                                                                                                                                                                                                           
12652   25610022        000004687500000HUF                                                                                                                                                                                                                                                                                        1210001110154753                                                                                                                                                                                                                                                                                                                                                                                                                                                      1210001110154753                                1210001110154753        HUF 000004687500000201712201210001110154753        HUF                               
12165   25614725       -000000000705600HUF                                                                                                                                            QUALITY POULTRY Kft                                                                                                                         121000111015475300000000          munkába járás költségtérítése                                                                                                                                                                                                                                                           Timár Ferencné Czirkó Éva                                                                                                                   117733222222140300000000          NOTPRO        117733222222140300000000                           121000111015475300000000    00000000070560020171220       
12165   25614727       -000000004744700HUF                                                                                                                                            QUALITY POULTRY Kft                                                                                                                         121000111015475300000000          Kiküldetés költségtérítése                                                                                                                                                                                                                                                              Timár Ferencné Czirkó Éva                                                                                                                   117733222222140300000000          NOTPRO        117733222222140300000000                           121000111015475300000000    00000000474470020171220       
12165   25614728       -000000002079000HUF                                                                                                                                            QUALITY POULTRY Kft                                                                                                                         121000111015475300000000          munkába járás költségtérítése                                                                                                                                                                                                                                                           Messzi-Szabó Andrea                                                                                                                         517000901539867300000000          NOTPRO        517000901539867300000000                           121000111015475300000000    00000000207900020171220       
12165   25614729       -000000002625700HUF                                                                                                                                            QUALITY POULTRY Kft                                                                                                                         121000111015475300000000          Kiküldetés költségtérítése                                                                                                                                                                                                                                                              Messzi-Szabó Andrea                                                                                                                         517000901539867300000000          NOTPRO        517000901539867300000000                           121000111015475300000000    00000000262570020171220       
12165   25614730       -000000001260000HUF                                                                                                                                            QUALITY POULTRY Kft                                                                                                                         121000111015475300000000          munkába járás költségtérítése                                                                                                                                                                                                                                                           Bajzák Ibolya Krisztina                                                                                                                     574001451000749300000000          NOTPRO        574001451000749300000000                           121000111015475300000000    00000000126000020171220       
12165   25614731       -000000001124900HUF                                                                                                                                            QUALITY POULTRY Kft                                                                                                                         121000111015475300000000          Kiküldetés költségtérítése                                                                                                                                                                                                                                                              Bajzák Ibolya Krisztina                                                                                                                     574001451000749300000000          NOTPRO        574001451000749300000000                           121000111015475300000000    00000000112490020171220       
12165   25614732       -000000000207900HUF                                                                                                                                            QUALITY POULTRY Kft                                                                                                                         121000111015475300000000          munkába járás költségtérítése                                                                                                                                                                                                                                                           GÉMES LÁSZLÓ                                                                                                                                574001761507076200000000          NOTPRO        574001761507076200000000                           121000111015475300000000    00000000020790020171220       
12165   25614733       -000000003030000HUF                                                                                                                                            QUALITY POULTRY Kft                                                                                                                         121000111015475300000000          Kiküldetés költségtérítése                                                                                                                                                                                                                                                              GÉMES LÁSZLÓ                                                                                                                                574001761507076200000000          NOTPRO        574001761507076200000000                           121000111015475300000000    00000000303000020171220       
12165   25614734       -000000002079000HUF                                                                                                                                            QUALITY POULTRY Kft                                                                                                                         121000111015475300000000          munkába járás költségtérítése                                                                                                                                                                                                                                                           Dudás László                                                                                                                                119911199919701800000000          NOTPRO        119911199919701800000000                           121000111015475300000000    00000000207900020171220       
12165   25614735       -000000002785900HUF                                                                                                                                            QUALITY POULTRY Kft                                                                                                                         121000111015475300000000          Kiküldetés költségtérítése                                                                                                                                                                                                                                                              Dudás László                                                                                                                                119911199919701800000000          NOTPRO        119911199919701800000000                           121000111015475300000000    00000000278590020171220       
12165   25614736       -000000002079000HUF                                                                                                                                            QUALITY POULTRY Kft                                                                                                                         121000111015475300000000          munkába járás költségtérítése                                                                                                                                                                                                                                                           Fábián Attila                                                                                                                               117733530054745500000000          NOTPRO        117733530054745500000000                           121000111015475300000000    00000000207900020171220       
12165   25614737       -000000002295100HUF                                                                                                                                            QUALITY POULTRY Kft                                                                                                                         121000111015475300000000          Kiküldetés költségtérítése                                                                                                                                                                                                                                                              Fábián Attila                                                                                                                               117733530054745500000000          NOTPRO        117733530054745500000000                           121000111015475300000000    00000000229510020171220       
12165   25614739       -000000030915500HUF                                                                                                                                            QUALITY POULTRY Kft/Óvadék folyószámlája                                                                                                    121000111015475300000000          A2017/001248 I#702#                                                                                                                                                                                                                                                                     INTEGR?L-HAT Kft.                                                                                                                           117321362000654100000000          NOTPRO        117321362000654100000000                           121000111015475300000000    00000003091550020171220       
12165   25614740       -000000046207400HUF                                                                                                                                            QUALITY POULTRY Kft/Óvadék folyószámlája                                                                                                    121000111015475300000000          A2017/001852 I#1429#                                                                                                                                                                                                                                                                    INTEGR?L-HAT Kft.                                                                                                                           117321362000654100000000          NOTPRO        117321362000654100000000                           121000111015475300000000    00000004620740020171220       
12165   25614741       -000000056418500HUF                                                                                                                                            QUALITY POULTRY Kft/Óvadék folyószámlája                                                                                                    121000111015475300000000          A2017/001684 I#1333#                                                                                                                                                                                                                                                                    INTEGR?L-HAT Kft.                                                                                                                           117321362000654100000000          NOTPRO        117321362000654100000000                           121000111015475300000000    00000005641850020171220       
12165   25614742       -000000062518700HUF                                                                                                                                            QUALITY POULTRY Kft/Óvadék folyószámlája                                                                                                    121000111015475300000000          A2017/001788 I#1392#                                                                                                                                                                                                                                                                    INTEGR?L-HAT Kft.                                                                                                                           117321362000654100000000          NOTPRO        117321362000654100000000                           121000111015475300000000    00000006251870020171220       
12165   25614743       -000000064043700HUF                                                                                                                                            QUALITY POULTRY Kft/Óvadék folyószámlája                                                                                                    121000111015475300000000          A2017/001195 I#729#                                                                                                                                                                                                                                                                     INTEGR?L-HAT Kft.                                                                                                                           117321362000654100000000          NOTPRO        117321362000654100000000                           121000111015475300000000    00000006404370020171220       
12165   25614744       -000000069920400HUF                                                                                                                                            QUALITY POULTRY Kft/Óvadék folyószámlája                                                                                                    121000111015475300000000          A2017/001511 I#953#                                                                                                                                                                                                                                                                     INTEGR?L-HAT Kft.                                                                                                                           117321362000654100000000          NOTPRO        117321362000654100000000                           121000111015475300000000    00000006992040020171220       
12165   25614745       -000000070830200HUF                                                                                                                                            QUALITY POULTRY Kft/Óvadék folyószámlája                                                                                                    121000111015475300000000          A2017/001687 I#1336#                                                                                                                                                                                                                                                                    INTEGR?L-HAT Kft.                                                                                                                           117321362000654100000000          NOTPRO        117321362000654100000000                           121000111015475300000000    00000007083020020171220       
12165   25614746       -000000077841100HUF                                                                                                                                            QUALITY POULTRY Kft/Óvadék folyószámlája                                                                                                    121000111015475300000000          A2017/001512 I#954#                                                                                                                                                                                                                                                                     INTEGR?L-HAT Kft.                                                                                                                           117321362000654100000000          NOTPRO        117321362000654100000000                           121000111015475300000000    00000007784110020171220       
12165   25614747       -000000079108000HUF                                                                                                                                            QUALITY POULTRY Kft/Óvadék folyószámlája                                                                                                    121000111015475300000000          A2017/001196 I#730#                                                                                                                                                                                                                                                                     INTEGR?L-HAT Kft.                                                                                                                           117321362000654100000000          NOTPRO        117321362000654100000000                           121000111015475300000000    00000007910800020171220       
12165   25614749       -000000026225500HUF                                                                                                                                            QUALITY POULTRY Kft/Óvadék folyószámlája                                                                                                    121000111015475300000000          AMX050254/2017 I#1360#                                                                                                                                                                                                                                                                  AMIX-digital Kft.                                                                                                                           117059982131062700000000          NOTPRO        117059982131062700000000                           121000111015475300000000    00000002622550020171220       
12165   25614750       -000000262937400HUF                                                                                                                                            QUALITY POULTRY Kft/Óvadék folyószámlája                                                                                                    121000111015475300000000          17404463XB I#1375#                                                                                                                                                                                                                                                                      ATEV Feh?rjefeldolgoz? Zrt.                                                                                                                 182033320601340340010019          NOTPRO        182033320601340340010019                           121000111015475300000000    00000026293740020171220       
12165   25614751       -000000005588000HUF                                                                                                                                            QUALITY POULTRY Kft/Óvadék folyószámlája                                                                                                    121000111015475300000000          2017/0220087 I#1350#                                                                                                                                                                                                                                                                    Clearwater                                                                                                                                  120010080010948500100006          NOTPRO        120010080010948500100006                           121000111015475300000000    00000000558800020171220       
12165   25614753       -000000008064500HUF                                                                                                                                            QUALITY POULTRY Kft/Óvadék folyószámlája                                                                                                    121000111015475300000000          V-SZ1-2017/00692 I#1412#                                                                                                                                                                                                                                                                DDS Hung?ria Kft.                                                                                                                           109180010000002737720008          NOTPRO        109180010000002737720008                           121000111015475300000000    00000000806450020171220       
12165   25614754       -000000007493000HUF                                                                                                                                            QUALITY POULTRY Kft/Óvadék folyószámlája                                                                                                    121000111015475300000000          364/2017 I#1342#                                                                                                                                                                                                                                                                        D?l-Nyugat Kft.                                                                                                                             104028052801991800000000          NOTPRO        104028052801991800000000                           121000111015475300000000    00000000749300020171220       
12165   25614755       -000000001968500HUF                                                                                                                                            QUALITY POULTRY Kft/Óvadék folyószámlája                                                                                                    121000111015475300000000          NJ6SA7874804 I#1440#                                                                                                                                                                                                                                                                    Ezer ?ves ?tterem Kft.                                                                                                                      117320572368551200000000          NOTPRO        117320572368551200000000                           121000111015475300000000    00000000196850020171220       
12165   25614756       -000000005841000HUF                                                                                                                                            QUALITY POULTRY Kft/Óvadék folyószámlája                                                                                                    121000111015475300000000          NJ6SA7874803 I#1441#                                                                                                                                                                                                                                                                    Ezer ?ves ?tterem Kft.                                                                                                                      117320572368551200000000          NOTPRO        117320572368551200000000                           121000111015475300000000    00000000584100020171220       
12165   25614757       -000000007345500HUF                                                                                                                                            QUALITY POULTRY Kft/Óvadék folyószámlája                                                                                                    121000111015475300000000          NJ6SA7874805 I#1442#                                                                                                                                                                                                                                                                    Ezer ?ves ?tterem Kft.                                                                                                                      117320572368551200000000          NOTPRO        117320572368551200000000                           121000111015475300000000    00000000734550020171220       
12165   25614758       -000000001905000HUF                                                                                                                                            QUALITY POULTRY Kft/Óvadék folyószámlája                                                                                                    121000111015475300000000          2017/AT/5009 I#1373#                                                                                                                                                                                                                                                                    Food Analytica Kft.                                                                                                                         117330272004753100000000          NOTPRO        117330272004753100000000                           121000111015475300000000    00000000190500020171220       
12165   25614759       -000000018838300HUF                                                                                                                                            QUALITY POULTRY Kft/Óvadék folyószámlája                                                                                                    121000111015475300000000          201700177/FT I#1340#                                                                                                                                                                                                                                                                    Frigo-Komplex Kft.                                                                                                                          120113510103880000100009          NOTPRO        120113510103880000100009                           121000111015475300000000    00000001883830020171220       
12165   25614760       -000000045720000HUF                                                                                                                                            QUALITY POULTRY Kft/Óvadék folyószámlája                                                                                                    121000111015475300000000          2017-254 I#1437#                                                                                                                                                                                                                                                                        Hobby Car Kft.                                                                                                                              116000060000000068308205          NOTPRO        116000060000000068308205                           121000111015475300000000    00000004572000020171220       
12165   25614761       -000000054610000HUF                                                                                                                                            QUALITY POULTRY Kft/Óvadék folyószámlája                                                                                                    121000111015475300000000          2017-253 I#1436#                                                                                                                                                                                                                                                                        Hobby Car Kft.                                                                                                                              116000060000000068308205          NOTPRO        116000060000000068308205                           121000111015475300000000    00000005461000020171220       
12165   25614762       -000000001333500HUF                                                                                                                                            QUALITY POULTRY Kft/Óvadék folyószámlája                                                                                                    121000111015475300000000          5760930 I#1358#                                                                                                                                                                                                                                                                         Hulita ?s T?rsai Bt.                                                                                                                        107000622432540051100005          NOTPRO        107000622432540051100005                           121000111015475300000000    00000000133350020171220       
12165   25614763       -000000444500000HUF                                                                                                                                            QUALITY POULTRY Kft/Óvadék folyószámlája                                                                                                    121000111015475300000000          95 I#1422#                                                                                                                                                                                                                                                                              Inoxvil?g Kft.                                                                                                                              104026475052675765661001          NOTPRO        104026475052675765661001                           121000111015475300000000    00000044450000020171220       
12165   25614764       -000000004292600HUF                                                                                                                                            QUALITY POULTRY Kft/Óvadék folyószámlája                                                                                                    121000111015475300000000          93 I#1421#                                                                                                                                                                                                                                                                              Inoxvil?g Kft.                                                                                                                              104026475052675765661001          NOTPRO        104026475052675765661001                           121000111015475300000000    00000000429260020171220       
12165   25614765       -000000045097700HUF                                                                                                                                            QUALITY POULTRY Kft/Óvadék folyószámlája                                                                                                    121000111015475300000000          92 I#1420#                                                                                                                                                                                                                                                                              Inoxvil?g Kft.                                                                                                                              104026475052675765661001          NOTPRO        104026475052675765661001                           121000111015475300000000    00000004509770020171220       
12165   25614766       -000000008915400HUF                                                                                                                                            QUALITY POULTRY Kft/Óvadék folyószámlája                                                                                                    121000111015475300000000          544403 I#1416#                                                                                                                                                                                                                                                                          INTEGR?L Zrt.                                                                                                                               116000060000000007209626          NOTPRO        116000060000000007209626                           121000111015475300000000    00000000891540020171220       
12165   25614767       -000000010160000HUF                                                                                                                                            QUALITY POULTRY Kft/Óvadék folyószámlája                                                                                                    121000111015475300000000          KLS-2017-322 I#1434#                                                                                                                                                                                                                                                                    KLGS-Service Kft.                                                                                                                           119962000627173810000001          NOTPRO        119962000627173810000001                           121000111015475300000000    00000001016000020171220       
12165   25614768       -000000015240000HUF                                                                                                                                            QUALITY POULTRY Kft/Óvadék folyószámlája                                                                                                    121000111015475300000000          KLS-2017-345 I#1435#                                                                                                                                                                                                                                                                    KLGS-Service Kft.                                                                                                                           119962000627173810000001          NOTPRO        119962000627173810000001                           121000111015475300000000    00000001524000020171220       
12165   25614769       -000000009569500HUF                                                                                                                                            QUALITY POULTRY Kft/Óvadék folyószámlája                                                                                                    121000111015475300000000          2017/00587/FT I#1419#                                                                                                                                                                                                                                                                   Leotrade Bt.                                                                                                                                101010166972570001004003          NOTPRO        101010166972570001004003                           121000111015475300000000    00000000956950020171220       
12165   25614770       -000000006908800HUF                                                                                                                                            QUALITY POULTRY Kft/Óvadék folyószámlája                                                                                                    121000111015475300000000          2017/00559/FT I#1423#                                                                                                                                                                                                                                                                   Leotrade Bt.                                                                                                                                101010166972570001004003          NOTPRO        101010166972570001004003                           121000111015475300000000    00000000690880020171220       
12165   25614771       -000000006148100HUF                                                                                                                                            QUALITY POULTRY Kft/Óvadék folyószámlája                                                                                                    121000111015475300000000          V-SZ1-2017/04337 I#1425#                                                                                                                                                                                                                                                                Marko? Kft.                                                                                                                                 101038054261380000000008          NOTPRO        101038054261380000000008                           121000111015475300000000    00000000614810020171220       
12165   25614772       -000000007051000HUF                                                                                                                                            QUALITY POULTRY Kft/Óvadék folyószámlája                                                                                                    121000111015475300000000          V-SZ1-2017/04996 I#725#                                                                                                                                                                                                                                                                 Marko? Kft.                                                                                                                                 101038054261380000000008          NOTPRO        101038054261380000000008                           121000111015475300000000    00000000705100020171220       
12165   25614773       -000000052622100HUF                                                                                                                                            QUALITY POULTRY Kft/Óvadék folyószámlája                                                                                                    121000111015475300000000          2017/A0308 I#415#                                                                                                                                                                                                                                                                       Moldov?n ?s T?rsai ?gyv?di Iro                                                                                                              120105010157882200100002          NOTPRO        120105010157882200100002                           121000111015475300000000    00000005262210020171220       
12165   25614774       -000000007254100HUF                                                                                                                                            QUALITY POULTRY Kft/Óvadék folyószámlája                                                                                                    121000111015475300000000          2017/A0408 I#1377#                                                                                                                                                                                                                                                                      Moldov?n ?s T?rsai ?gyv?di Iro                                                                                                              120105010157882200100002          NOTPRO        120105010157882200100002                           121000111015475300000000    00000000725410020171220       
12165   25614775       -000000047106600HUF                                                                                                                                            QUALITY POULTRY Kft/Óvadék folyószámlája                                                                                                    121000111015475300000000          101712240 I#1430#                                                                                                                                                                                                                                                                       Nagel Hung?ria Logisztikai Kft.                                                                                                             109180010000001731940005          NOTPRO        109180010000001731940005                           121000111015475300000000    00000004710660020171220       
12165   25614776       -000000005682500HUF                                                                                                                                            QUALITY POULTRY Kft/Óvadék folyószámlája                                                                                                    121000111015475300000000          NE2017/00180 I#416#                                                                                                                                                                                                                                                                     Nagy Endre e.v.                                                                                                                             117320022003996700000000          NOTPRO        117320022003996700000000                           121000111015475300000000    00000000568250020171220       
12165   25614777       -000000032268800HUF                                                                                                                                            QUALITY POULTRY Kft/Óvadék folyószámlája                                                                                                    121000111015475300000000          NE2017/00179 I#417#                                                                                                                                                                                                                                                                     Nagy Endre e.v.                                                                                                                             117320022003996700000000          NOTPRO        117320022003996700000000                           121000111015475300000000    00000003226880020171220       
12165   25614778       -000000016673400HUF                                                                                                                                            QUALITY POULTRY Kft/Óvadék folyószámlája                                                                                                    121000111015475300000000          0150-2017/1760 I#1410#                                                                                                                                                                                                                                                                  Pandan Kft.                                                                                                                                 104047424741194800000000          NOTPRO        104047424741194800000000                           121000111015475300000000    00000001667340020171220       
12165   25614779       -000000047396400HUF                                                                                                                                            QUALITY POULTRY Kft/Óvadék folyószámlája                                                                                                    121000111015475300000000          A/3695/2017 I#1417#                                                                                                                                                                                                                                                                     P?csi M?rlegst?di? Kft.                                                                                                                     504001131100514000000000          NOTPRO        504001131100514000000000                           121000111015475300000000    00000004739640020171220       
12165   25614780       -000000009144000HUF                                                                                                                                            QUALITY POULTRY Kft/Óvadék folyószámlája                                                                                                    121000111015475300000000          A/3711/2017 I#1418#                                                                                                                                                                                                                                                                     P?csi M?rlegst?di? Kft.                                                                                                                     504001131100514000000000          NOTPRO        504001131100514000000000                           121000111015475300000000    00000000914400020171220       
12165   25614781       -000000027990000HUF                                                                                                                                            QUALITY POULTRY Kft/Óvadék folyószámlája                                                                                                    121000111015475300000000          IH4SA9282574 I#1438#                                                                                                                                                                                                                                                                    Perfect Gsm Meratel Kft.                                                                                                                    109180010000007296650001          NOTPRO        109180010000007296650001                           121000111015475300000000    00000002799000020171220       
12165   25614782       -000000103619300HUF                                                                                                                                            QUALITY POULTRY Kft/Óvadék folyószámlája                                                                                                    121000111015475300000000          KL17/01114 I#1378#                                                                                                                                                                                                                                                                      POL?R Kft.                                                                                                                                  109180010000001349420001          NOTPRO        109180010000001349420001                           121000111015475300000000    00000010361930020171220       
12165   25614784       -000000010828600HUF                                                                                                                                            QUALITY POULTRY Kft/Óvadék folyószámlája                                                                                                    121000111015475300000000          100181201878 I#1431#                                                                                                                                                                                                                                                                    Telenor Magyarorsz?g Zrt.                                                                                                                   137000160154902700000000          NOTPRO        137000160154902700000000                           121000111015475300000000    00000001082860020171220       
12165   25614785       -000000006000000HUF                                                                                                                                            QUALITY POULTRY Kft/Óvadék folyószámlája                                                                                                    121000111015475300000000          VL1SA9624020 I#1355#                                                                                                                                                                                                                                                                    T?th Istv?n e.v.                                                                                                                            182034730136112110010012          NOTPRO        182034730136112110010012                           121000111015475300000000    00000000600000020171220       
12165   25614786       -000000045720000HUF                                                                                                                                            QUALITY POULTRY Kft/Óvadék folyószámlája                                                                                                    121000111015475300000000          KF5SA5744865 I#1439#                                                                                                                                                                                                                                                                    Trecool Kft.                                                                                                                                107001656881197251100005          NOTPRO        107001656881197251100005                           121000111015475300000000    00000004572000020171220       
12165   25617842       -000000022352000HUF                                                                                                                                            QUALITY POULTRY Kft/Óvadék folyószámlája                                                                                                    121000111015475300000000          2017/422 I#1352#                                                                                                                                                                                                                                                                        Ba-CSa Trade Kft.                                                                                                                           120620030100966000100009          NOTPRO        120620030100966000100009                           121000111015475300000000    00000002235200020171220       
12165   25617843       -000000002100000HUF                                                                                                                                            QUALITY POULTRY Kft/Óvadék folyószámlája                                                                                                    121000111015475300000000          GU4SA6889046 I#1409#                                                                                                                                                                                                                                                                    Dr. Toront?li Ren?ta                                                                                                                        117350982004637200000000          NOTPRO        117350982004637200000000                           121000111015475300000000    00000000210000020171220       
12165   25617844       -000000040158900HUF                                                                                                                                            QUALITY POULTRY Kft/Óvadék folyószámlája                                                                                                    121000111015475300000000          E0400238580 / E0400238581 I#1432#                                                                                                                                                                                                                                                       FleetCor Hungary Kft.                                                                                                                       109180010000008282840000          NOTPRO        109180010000008282840000                           121000111015475300000000    00000004015890020171220       
12165   25617845       -000000006929800HUF                                                                                                                                            QUALITY POULTRY Kft/Óvadék folyószámlája                                                                                                    121000111015475300000000          2017/02211 I#1330#                                                                                                                                                                                                                                                                      F?nix-Irodaszer Kft.                                                                                                                        109180010000003482160002          NOTPRO        109180010000003482160002                           121000111015475300000000    00000000692980020171220       
12165   25617846       -000000010160000HUF                                                                                                                                            QUALITY POULTRY Kft/Óvadék folyószámlája                                                                                                    121000111015475300000000          4400/302/17 I#1337#                                                                                                                                                                                                                                                                     HVG Kiad? Kft.                                                                                                                              116000060000000076695759          NOTPRO        116000060000000076695759                           121000111015475300000000    00000001016000020171220       
12165   25617847       -000000005300000HUF                                                                                                                                            QUALITY POULTRY Kft/Óvadék folyószámlája                                                                                                    121000111015475300000000          NJ6SA0064539 I#1331#                                                                                                                                                                                                                                                                    Luk?cs Zolt?n Luk?cs                                                                                                                        532001251530136900000000          NOTPRO        532001251530136900000000                           121000111015475300000000    00000000530000020171220       
12165   25617848       -000000016045700HUF                                                                                                                                            QUALITY POULTRY Kft/Óvadék folyószámlája                                                                                                    121000111015475300000000          V-SZ1-2017/09033 I#1353#                                                                                                                                                                                                                                                                Marko? Kft.                                                                                                                                 101038054261380000000008          NOTPRO        101038054261380000000008                           121000111015475300000000    00000001604570020171220       
12165   25617849       -000000053628400HUF                                                                                                                                            QUALITY POULTRY Kft/Óvadék folyószámlája                                                                                                    121000111015475300000000          NE2017/00282 I#1411#                                                                                                                                                                                                                                                                    Nagy Endre e.v.                                                                                                                             117320022003996700000000          NOTPRO        117320022003996700000000                           121000111015475300000000    00000005362840020171220       
12211   25617850       -000000009042400HUF                                                                                                                                                                                                                                                                                        1210001110154753                  KL17000222                      I#1403#                                                                                                                                                                                                                                                 OLOESZ Kft.                                                                                                                                 1210001110213870                                1210001110213870                                   1210001110154753        HUF 00000000904240020171220       
12165   25617852       -000000052908200HUF                                                                                                                                            QUALITY POULTRY Kft/Óvadék folyószámlája                                                                                                    121000111015475300000000          PLQ8-SZ-1845842 I#1329#                                                                                                                                                                                                                                                                 Plastic-Line Kft.                                                                                                                           117030062046593700000000          NOTPRO        117030062046593700000000                           121000111015475300000000    00000005290820020171220       
12165   25617853       -000000008411700HUF                                                                                                                                            QUALITY POULTRY Kft/Óvadék folyószámlája                                                                                                    121000111015475300000000          2017/000149 I#1328#                                                                                                                                                                                                                                                                     Roben Trade Bt.                                                                                                                             104005595052677874801002          NOTPRO        104005595052677874801002                           121000111015475300000000    00000000841170020171220       
12165   25617854       -000000008318000HUF                                                                                                                                            QUALITY POULTRY Kft/Óvadék folyószámlája                                                                                                    121000111015475300000000          2017/000147 I#1356#                                                                                                                                                                                                                                                                     Roben Trade Bt.                                                                                                                             104005595052677874801002          NOTPRO        104005595052677874801002                           121000111015475300000000    00000000831800020171220       
12165   25617855       -000000070000000HUF                                                                                                                                            QUALITY POULTRY Kft/Óvadék folyószámlája                                                                                                    121000111015475300000000          NJ6SA3129503 I#1368#                                                                                                                                                                                                                                                                    Sass-Szab? Ildik?                                                                                                                           698001261517525200000000          NOTPRO        698001261517525200000000                           121000111015475300000000    00000007000000020171220       
12165   25617856       -000000006817500HUF                                                                                                                                            QUALITY POULTRY Kft/Óvadék folyószámlája                                                                                                    121000111015475300000000          20171011SEMES I#1451#                                                                                                                                                                                                                                                                   Semes B"H Kft                                                                                                                               104010485052668471681009          NOTPRO        104010485052668471681009                           121000111015475300000000    00000000681750020171220       
12165   25617857       -000000002994800HUF                                                                                                                                            QUALITY POULTRY Kft/Óvadék folyószámlája                                                                                                    121000111015475300000000          NJ6SA2454803 I#1424#                                                                                                                                                                                                                                                                    Speed-Kont?r Kft.                                                                                                                           117320712005079100000000          NOTPRO        117320712005079100000000                           121000111015475300000000    00000000299480020171220       
12165   25617858       -000000000507500HUF                                                                                                                                            QUALITY POULTRY Kft/Óvadék folyószámlája                                                                                                    121000111015475300000000          2017/0004559 I#1376#                                                                                                                                                                                                                                                                    Szegedi Hullad?kgazd?lkod?si Kft                                                                                                            120010080156176500100008          NOTPRO        120010080156176500100008                           121000111015475300000000    00000000050750020171220       
12158   25618033        000001432253100HUF                                                                                                                                            BAROMFIUDVAR 2002 KERESKEDELMI ÉS S                                                                                                         120527050021555900100006          Utalt számlák lista szerint                                                                                                                                                                                                                                                             QUALITY POULTRY BAROMFIFELDOLGOZ                                                                                                            121000111015475300000000          NOTPRO        121000111015475300000000    00000143225310020171220120527050021555900100006                                  
12211   25618307       -000000770000000HUF                                                                                                                                            QUALITY POULTRY Kft                                                                                                                         121000111015475300000000          Elõleg                                                                                                                                                                                                                                                                                  Emih Dél-Magyarorsz. Izraelita Hitközség                                                                                                    121000111024958100000000          NOTPRO        121000111024958100000000                           121000111015475300000000    00000077000000020171220       
12165   25620850       -000000749300000HUF                                                                                                                                            QUALITY POULTRY Kft/Óvadék folyószámlája                                                                                                    121000111015475300000000          NJ6SA7518508 I#1452#                                                                                                                                                                                                                                                                    Zahorecz Agro 2014 Kft.                                                                                                                     104025445052665482871007          NOTPRO        104025445052665482871007                           121000111015475300000000    00000074930000020171220       
12165   25620851       -000000027990000HUF                                                                                                                                            QUALITY POULTRY Kft/Óvadék folyószámlája                                                                                                    121000111015475300000000          IH4SA9282576 I#1453#                                                                                                                                                                                                                                                                    Perfect Gsm Meratel Kft.                                                                                                                    109180010000007296650001          NOTPRO        109180010000007296650001                           121000111015475300000000    00000002799000020171220       
13                                                                                                                                                                                                                                                                                                                                                                                                                                                                                                                                                                                                                                                                                                                                                                                                                                                                                                                                                                   
14                                                                                                                                                                                                                                                                                                                                                                                                                                                                                                                                                                                                                                                                                                                                                                                                                                                                                                                                                                   
